{
    "contractName": "Penalizer",
    "abi": [
        {
            "inputs": [],
            "name": "versionPenalizer",
            "outputs": [
                {
                    "internalType": "string",
                    "name": "",
                    "type": "string"
                }
            ],
            "stateMutability": "view",
            "type": "function"
        },
        {
            "inputs": [
                {
                    "internalType": "bytes",
                    "name": "unsignedTx1",
                    "type": "bytes"
                },
                {
                    "internalType": "bytes",
                    "name": "signature1",
                    "type": "bytes"
                },
                {
                    "internalType": "bytes",
                    "name": "unsignedTx2",
                    "type": "bytes"
                },
                {
                    "internalType": "bytes",
                    "name": "signature2",
                    "type": "bytes"
                },
                {
                    "internalType": "contract IRelayHub",
                    "name": "hub",
                    "type": "address"
                }
            ],
            "name": "penalizeRepeatedNonce",
            "outputs": [],
            "stateMutability": "nonpayable",
            "type": "function"
        },
        {
            "inputs": [
                {
                    "internalType": "bytes",
                    "name": "unsignedTx",
                    "type": "bytes"
                },
                {
                    "internalType": "bytes",
                    "name": "signature",
                    "type": "bytes"
                },
                {
                    "internalType": "contract IRelayHub",
                    "name": "hub",
                    "type": "address"
                }
            ],
            "name": "penalizeIllegalTransaction",
            "outputs": [],
            "stateMutability": "nonpayable",
            "type": "function"
        }
    ],
    "bytecode": "0x60e060405260226080818152906200134460a039805162000029916000916020909101906200003e565b503480156200003757600080fd5b50620000e3565b828054600181600116156101000203166002900490600052602060002090601f016020900481019282601f106200008157805160ff1916838001178555620000b1565b82800160010185558215620000b1579182015b82811115620000b157825182559160200191906001019062000094565b50620000bf929150620000c3565b5090565b620000e091905b80821115620000bf5760008155600101620000ca565b90565b61125180620000f36000396000f3fe608060405234801561001057600080fd5b50600436106100415760003560e01c806339ee150a14610046578063a03136571461005b578063f913fe3e14610079575b600080fd5b610059610054366004610da3565b61008c565b005b610063610243565b6040516100709190610ecc565b60405180910390f35b610059610087366004610cdb565b6102d1565b604051632ad311b560e01b815281906001600160a01b03821690632ad311b5906100ba903390600401610e80565b60206040518083038186803b1580156100d257600080fd5b505afa1580156100e6573d6000803e3d6000fd5b505050506040513d601f19601f8201168201806040525081019061010a9190610cbb565b61012f5760405162461bcd60e51b815260040161012690611001565b60405180910390fd5b610137610be4565b610140856104f6565b9050826001600160a01b031681606001516001600160a01b031614156101ce57600061016f8260a00151610531565b604083015160a08401519192506001600160e01b031983166313da12b560e11b141591600091906101a1906004610544565b1415905081806101ae5750805b6101ca5760405162461bcd60e51b815260040161012690610f6d565b5050505b600061020985876040516020016101e59190610e23565b6040516020818303038152906040528051906020012061055d90919063ffffffff16565b90506001600160a01b0381166102315760405162461bcd60e51b8152600401610126906111c1565b61023b818561068b565b505050505050565b6000805460408051602060026001851615610100026000190190941693909304601f810184900484028201840190925281815292918301828280156102c95780601f1061029e576101008083540402835291602001916102c9565b820191906000526020600020905b8154815290600101906020018083116102ac57829003601f168201915b505050505081565b604051632ad311b560e01b815281906001600160a01b03821690632ad311b5906102ff903390600401610e80565b60206040518083038186803b15801561031757600080fd5b505afa15801561032b573d6000803e3d6000fd5b505050506040513d601f19601f8201168201806040525081019061034f9190610cbb565b61036b5760405162461bcd60e51b815260040161012690611001565b600061038286886040516020016101e59190610e23565b9050600061039b85876040516020016101e59190610e23565b9050806001600160a01b0316826001600160a01b0316146103ce5760405162461bcd60e51b8152600401610126906110d2565b6001600160a01b0382166103f45760405162461bcd60e51b8152600401610126906111c1565b6103fc610be4565b610405896104f6565b905061040f610be4565b610418886104f6565b805183519192501461043c5760405162461bcd60e51b815260040161012690611072565b60608260a001518360400151846060015185608001516040516020016104659493929190610e3f565b604051602081830303815290604052905060608260a0015183604001518460600151856080015160405160200161049f9493929190610e3f565b60405160208183030381529060405290508080519060200120828051906020012014156104de5760405162461bcd60e51b8152600401610126906110fc565b6104e8868961068b565b505050505050505050505050565b6104fe610be4565b610507826106e7565b60a087015260808601526001600160a01b031660608501526040840152602083015281525b919050565b600061053e8260006107a1565b92915050565b600061055683836020026004016107da565b9392505050565b600081516041146105805760405162461bcd60e51b815260040161012690610f36565b60208201516040830151606084015160001a7f7fffffffffffffffffffffffffffffff5d576e7357a4501ddfe92f46681b20a08211156105d25760405162461bcd60e51b815260040161012690611030565b8060ff16601b141580156105ea57508060ff16601c14155b156106075760405162461bcd60e51b815260040161012690611121565b60006001878386866040516000815260200160405260405161062c9493929190610eae565b6020604051602081039080840390855afa15801561064e573d6000803e3d6000fd5b5050604051601f1901519150506001600160a01b0381166106815760405162461bcd60e51b815260040161012690610eff565b9695505050505050565b604051633af34c6b60e21b81526001600160a01b0382169063ebcd31ac906106b99085903390600401610e94565b600060405180830381600087803b1580156106d357600080fd5b505af115801561023b573d6000803e3d6000fd5b60008060008060006060806107036106fe896107e6565b61082b565b90506107228160008151811061071557fe5b6020026020010151610922565b6107328260018151811061071557fe5b6107428360028151811061071557fe5b61075f8460038151811061075257fe5b6020026020010151610950565b61076f8560048151811061071557fe5b61078c8660058151811061077f57fe5b6020026020010151610980565b949d939c50919a509850965090945092505050565b600081600401835110156107c75760405162461bcd60e51b81526004016101269061118a565b5001602001516001600160e01b03191690565b60006105568383610a02565b6107ee610c23565b815161080e5750604080518082019091526000808252602082015261052c565b506040805180820190915281518152602082810190820152919050565b606061083682610a31565b6108525760405162461bcd60e51b815260040161012690611163565b600061085d83610a5d565b90508067ffffffffffffffff8111801561087657600080fd5b506040519080825280602002602001820160405280156108b057816020015b61089d610c23565b8152602001906001900390816108955790505b50915060006108c28460200151610aaa565b60208501510190506000805b83811015610919576108df83610b13565b915060405180604001604052808381526020018481525085828151811061090257fe5b6020908102919091010152918101916001016108ce565b50505050919050565b6000806109328360200151610aaa565b83516020948501518201519190039093036101000a90920492915050565b60006015826000015111156109775760405162461bcd60e51b815260040161012690610fa4565b61053e82610922565b606060006109918360200151610aaa565b835190915081900360608167ffffffffffffffff811180156109b257600080fd5b506040519080825280601f01601f1916602001820160405280156109dd576020820181803683370190505b50905060008160200190506109f9848760200151018285610ba3565b50949350505050565b60008160200183511015610a285760405162461bcd60e51b81526004016101269061109b565b50016020015190565b6020810151805160009190821a9060c0821015610a535760009250505061052c565b5060019392505050565b600080600090506000610a738460200151610aaa565b602085015185519181019250015b80821015610aa157610a9282610b13565b60019093019290910190610a81565b50909392505050565b8051600090811a6080811015610ac457600091505061052c565b60b8811080610adf575060c08110801590610adf575060f881105b15610aee57600191505061052c565b60c0811015610b025760b51901905061052c565b60f51901905061052c565b50919050565b8051600090811a6080811015610b2d57600191505061052c565b60b8811015610b4157607e1901905061052c565b60c0811015610b6e5760b78103600184019350806020036101000a84510460018201810193505050610b0d565b60f8811015610b825760be1901905061052c565b60019290920151602083900360f7016101000a900490910160f51901919050565b5b60208110610bc3578251825260209283019290910190601f1901610ba4565b915181516020939093036101000a6000190180199091169216919091179052565b6040518060c0016040528060008152602001600081526020016000815260200160006001600160a01b0316815260200160008152602001606081525090565b604051806040016040528060008152602001600081525090565b600082601f830112610c4d578081fd5b813567ffffffffffffffff80821115610c64578283fd5b604051601f8301601f191681016020018281118282101715610c84578485fd5b604052828152925082848301602001861015610c9f57600080fd5b8260208601602083013760006020848301015250505092915050565b600060208284031215610ccc578081fd5b81518015158114610556578182fd5b600080600080600060a08688031215610cf2578081fd5b853567ffffffffffffffff80821115610d09578283fd5b610d1589838a01610c3d565b96506020880135915080821115610d2a578283fd5b610d3689838a01610c3d565b95506040880135915080821115610d4b578283fd5b610d5789838a01610c3d565b94506060880135915080821115610d6c578283fd5b50610d7988828901610c3d565b92505060808601356001600160a01b0381168114610d95578182fd5b809150509295509295909350565b600080600060608486031215610db7578283fd5b833567ffffffffffffffff80821115610dce578485fd5b610dda87838801610c3d565b94506020860135915080821115610def578384fd5b50610dfc86828701610c3d565b92505060408401356001600160a01b0381168114610e18578182fd5b809150509250925092565b60008251610e358184602087016111eb565b9190910192915050565b60008551610e51818460208a016111eb565b919091019384525060609190911b6bffffffffffffffffffffffff191660208301526034820152605401919050565b6001600160a01b0391909116815260200190565b6001600160a01b0392831681529116602082015260400190565b93845260ff9290921660208401526040830152606082015260800190565b6000602082528251806020840152610eeb8160408501602087016111eb565b601f01601f19169190910160400192915050565b60208082526018908201527f45434453413a20696e76616c6964207369676e61747572650000000000000000604082015260600190565b6020808252601f908201527f45434453413a20696e76616c6964207369676e6174757265206c656e67746800604082015260600190565b60208082526017908201527f4c6567616c2072656c6179207472616e73616374696f6e000000000000000000604082015260600190565b6020808252603a908201527f496e76616c696420524c504974656d2e2041646472657373657320617265206560408201527f6e636f64656420696e203230206279746573206f72206c657373000000000000606082015260800190565b6020808252601590820152742ab735b737bbb7103932b630bc9036b0b730b3b2b960591b604082015260600190565b60208082526022908201527f45434453413a20696e76616c6964207369676e6174757265202773272076616c604082015261756560f01b606082015260800190565b6020808252600f908201526e446966666572656e74206e6f6e636560881b604082015260600190565b6020808252601b908201527f72656164427974657333323a206461746120746f6f2073686f72740000000000604082015260600190565b60208082526010908201526f2234b33332b932b73a1039b4b3b732b960811b604082015260600190565b6020808252600b908201526a1d1e081a5cc8195c5d585b60aa1b604082015260600190565b60208082526022908201527f45434453413a20696e76616c6964207369676e6174757265202776272076616c604082015261756560f01b606082015260800190565b6020808252600d908201526c1a5cd31a5cdd0819985a5b1959609a1b604082015260600190565b6020808252601a908201527f726561644279746573343a206461746120746f6f2073686f7274000000000000604082015260600190565b60208082526010908201526f1958dc9958dbdd995c8819985a5b195960821b604082015260600190565b60005b838110156112065781810151838201526020016111ee565b83811115611215576000848401525b5050505056fea2646970667358221220b8623af626c093144e7b703ceb555f957c77979f6540f364d048150dff23c9a964736f6c634300060a0033322e302e302b6f70656e67736e2e70656e616c697a65722e6970656e616c697a6572",
    "immutableReferences": {},
    "source": "// SPDX-License-Identifier:MIT\npragma solidity ^0.6.2;\npragma experimental ABIEncoderV2;\n\nimport \"@openzeppelin/contracts/cryptography/ECDSA.sol\";\n\nimport \"./utils/RLPReader.sol\";\nimport \"./utils/GsnUtils.sol\";\nimport \"./interfaces/IRelayHub.sol\";\nimport \"./interfaces/IPenalizer.sol\";\n\ncontract Penalizer is IPenalizer{\n\n    string public override versionPenalizer = \"2.0.0+opengsn.penalizer.ipenalizer\";\n\n    using ECDSA for bytes32;\n\n    function decodeTransaction(bytes memory rawTransaction) private pure returns (Transaction memory transaction) {\n        (transaction.nonce,\n        transaction.gasPrice,\n        transaction.gasLimit,\n        transaction.to,\n        transaction.value,\n        transaction.data) = RLPReader.decodeTransaction(rawTransaction);\n        return transaction;\n\n    }\n\n    modifier relayManagerOnly(IRelayHub hub) {\n        require(hub.isRelayManagerStaked(msg.sender), \"Unknown relay manager\");\n        _;\n    }\n\n    function penalizeRepeatedNonce(\n        bytes memory unsignedTx1,\n        bytes memory signature1,\n        bytes memory unsignedTx2,\n        bytes memory signature2,\n        IRelayHub hub\n    )\n    public\n    override\n    relayManagerOnly(hub)\n    {\n        // Can be called by a relay manager only.\n        // If a relay attacked the system by signing multiple transactions with the same nonce\n        // (so only one is accepted), anyone can grab both transactions from the blockchain and submit them here.\n        // Check whether unsignedTx1 != unsignedTx2, that both are signed by the same address,\n        // and that unsignedTx1.nonce == unsignedTx2.nonce.\n        // If all conditions are met, relay is considered an \"offending relay\".\n        // The offending relay will be unregistered immediately, its stake will be forfeited and given\n        // to the address who reported it (msg.sender), thus incentivizing anyone to report offending relays.\n        // If reported via a relay, the forfeited stake is split between\n        // msg.sender (the relay used for reporting) and the address that reported it.\n\n        address addr1 = keccak256(abi.encodePacked(unsignedTx1)).recover(signature1);\n        address addr2 = keccak256(abi.encodePacked(unsignedTx2)).recover(signature2);\n\n        require(addr1 == addr2, \"Different signer\");\n        require(addr1 != address(0), \"ecrecover failed\");\n\n        Transaction memory decodedTx1 = decodeTransaction(unsignedTx1);\n        Transaction memory decodedTx2 = decodeTransaction(unsignedTx2);\n\n        // checking that the same nonce is used in both transaction, with both signed by the same address\n        // and the actual data is different\n        // note: we compare the hash of the tx to save gas over iterating both byte arrays\n        require(decodedTx1.nonce == decodedTx2.nonce, \"Different nonce\");\n\n        bytes memory dataToCheck1 =\n        abi.encodePacked(decodedTx1.data, decodedTx1.gasLimit, decodedTx1.to, decodedTx1.value);\n\n        bytes memory dataToCheck2 =\n        abi.encodePacked(decodedTx2.data, decodedTx2.gasLimit, decodedTx2.to, decodedTx2.value);\n\n        require(keccak256(dataToCheck1) != keccak256(dataToCheck2), \"tx is equal\");\n\n        penalize(addr1, hub);\n    }\n\n    function penalizeIllegalTransaction(\n        bytes memory unsignedTx,\n        bytes memory signature,\n        IRelayHub hub\n    )\n    public\n    override\n    relayManagerOnly(hub)\n    {\n        Transaction memory decodedTx = decodeTransaction(unsignedTx);\n        if (decodedTx.to == address(hub)) {\n            bytes4 selector = GsnUtils.getMethodSig(decodedTx.data);\n            bool isWrongMethodCall = selector != IRelayHub.relayCall.selector;\n            bool isGasLimitWrong = GsnUtils.getParam(decodedTx.data, 4) != decodedTx.gasLimit;\n            require(\n                isWrongMethodCall || isGasLimitWrong,\n                \"Legal relay transaction\");\n        }\n        address relay = keccak256(abi.encodePacked(unsignedTx)).recover(signature);\n        require(relay != address(0), \"ecrecover failed\");\n\n        penalize(relay, hub);\n    }\n\n    function penalize(address relayWorker, IRelayHub hub) private {\n        hub.penalize(relayWorker, msg.sender);\n    }\n}\n",
    "sourcePath": "/Users/dror/IdeaProjects/gsn/contracts/Penalizer.sol",
    "compiler": {
        "name": "solc",
        "version": "0.6.10+commit.00c0fcaf.Emscripten.clang"
    },
    "schemaVersion": "3.1.0",
    "updatedAt": "2020-12-21T17:30:10.437Z",
    "devdoc": {
        "methods": {}
    },
    "userdoc": {
        "methods": {}
    }
}