{
    "contractName": "RelayHub",
    "abi": [
        {
            "inputs": [
                {
                    "internalType": "contract IStakeManager",
                    "name": "_stakeManager",
                    "type": "address"
                },
                {
                    "internalType": "address",
                    "name": "_penalizer",
                    "type": "address"
                },
                {
                    "internalType": "uint256",
                    "name": "_maxWorkerCount",
                    "type": "uint256"
                },
                {
                    "internalType": "uint256",
                    "name": "_gasReserve",
                    "type": "uint256"
                },
                {
                    "internalType": "uint256",
                    "name": "_postOverhead",
                    "type": "uint256"
                },
                {
                    "internalType": "uint256",
                    "name": "_gasOverhead",
                    "type": "uint256"
                },
                {
                    "internalType": "uint256",
                    "name": "_maximumRecipientDeposit",
                    "type": "uint256"
                },
                {
                    "internalType": "uint256",
                    "name": "_minimumUnstakeDelay",
                    "type": "uint256"
                },
                {
                    "internalType": "uint256",
                    "name": "_minimumStake",
                    "type": "uint256"
                }
            ],
            "stateMutability": "nonpayable",
            "type": "constructor"
        },
        {
            "anonymous": false,
            "inputs": [
                {
                    "indexed": true,
                    "internalType": "address",
                    "name": "paymaster",
                    "type": "address"
                },
                {
                    "indexed": true,
                    "internalType": "address",
                    "name": "from",
                    "type": "address"
                },
                {
                    "indexed": false,
                    "internalType": "uint256",
                    "name": "amount",
                    "type": "uint256"
                }
            ],
            "name": "Deposited",
            "type": "event"
        },
        {
            "anonymous": false,
            "inputs": [
                {
                    "indexed": true,
                    "internalType": "address",
                    "name": "relayManager",
                    "type": "address"
                },
                {
                    "indexed": false,
                    "internalType": "uint256",
                    "name": "baseRelayFee",
                    "type": "uint256"
                },
                {
                    "indexed": false,
                    "internalType": "uint256",
                    "name": "pctRelayFee",
                    "type": "uint256"
                },
                {
                    "indexed": false,
                    "internalType": "string",
                    "name": "relayUrl",
                    "type": "string"
                }
            ],
            "name": "RelayServerRegistered",
            "type": "event"
        },
        {
            "anonymous": false,
            "inputs": [
                {
                    "indexed": true,
                    "internalType": "address",
                    "name": "relayManager",
                    "type": "address"
                },
                {
                    "indexed": false,
                    "internalType": "address[]",
                    "name": "newRelayWorkers",
                    "type": "address[]"
                },
                {
                    "indexed": false,
                    "internalType": "uint256",
                    "name": "workersCount",
                    "type": "uint256"
                }
            ],
            "name": "RelayWorkersAdded",
            "type": "event"
        },
        {
            "anonymous": false,
            "inputs": [
                {
                    "indexed": true,
                    "internalType": "address",
                    "name": "relayManager",
                    "type": "address"
                },
                {
                    "indexed": true,
                    "internalType": "address",
                    "name": "paymaster",
                    "type": "address"
                },
                {
                    "indexed": true,
                    "internalType": "address",
                    "name": "from",
                    "type": "address"
                },
                {
                    "indexed": false,
                    "internalType": "address",
                    "name": "to",
                    "type": "address"
                },
                {
                    "indexed": false,
                    "internalType": "address",
                    "name": "relayWorker",
                    "type": "address"
                },
                {
                    "indexed": false,
                    "internalType": "bytes4",
                    "name": "selector",
                    "type": "bytes4"
                },
                {
                    "indexed": false,
                    "internalType": "uint256",
                    "name": "innerGasUsed",
                    "type": "uint256"
                },
                {
                    "indexed": false,
                    "internalType": "bytes",
                    "name": "reason",
                    "type": "bytes"
                }
            ],
            "name": "TransactionRejectedByPaymaster",
            "type": "event"
        },
        {
            "anonymous": false,
            "inputs": [
                {
                    "indexed": true,
                    "internalType": "address",
                    "name": "relayManager",
                    "type": "address"
                },
                {
                    "indexed": true,
                    "internalType": "address",
                    "name": "relayWorker",
                    "type": "address"
                },
                {
                    "indexed": true,
                    "internalType": "address",
                    "name": "from",
                    "type": "address"
                },
                {
                    "indexed": false,
                    "internalType": "address",
                    "name": "to",
                    "type": "address"
                },
                {
                    "indexed": false,
                    "internalType": "address",
                    "name": "paymaster",
                    "type": "address"
                },
                {
                    "indexed": false,
                    "internalType": "bytes4",
                    "name": "selector",
                    "type": "bytes4"
                },
                {
                    "indexed": false,
                    "internalType": "enum IRelayHub.RelayCallStatus",
                    "name": "status",
                    "type": "uint8"
                },
                {
                    "indexed": false,
                    "internalType": "uint256",
                    "name": "charge",
                    "type": "uint256"
                }
            ],
            "name": "TransactionRelayed",
            "type": "event"
        },
        {
            "anonymous": false,
            "inputs": [
                {
                    "indexed": false,
                    "internalType": "enum IRelayHub.RelayCallStatus",
                    "name": "status",
                    "type": "uint8"
                },
                {
                    "indexed": false,
                    "internalType": "bytes",
                    "name": "returnValue",
                    "type": "bytes"
                }
            ],
            "name": "TransactionResult",
            "type": "event"
        },
        {
            "anonymous": false,
            "inputs": [
                {
                    "indexed": true,
                    "internalType": "address",
                    "name": "account",
                    "type": "address"
                },
                {
                    "indexed": true,
                    "internalType": "address",
                    "name": "dest",
                    "type": "address"
                },
                {
                    "indexed": false,
                    "internalType": "uint256",
                    "name": "amount",
                    "type": "uint256"
                }
            ],
            "name": "Withdrawn",
            "type": "event"
        },
        {
            "inputs": [],
            "name": "gasOverhead",
            "outputs": [
                {
                    "internalType": "uint256",
                    "name": "",
                    "type": "uint256"
                }
            ],
            "stateMutability": "view",
            "type": "function"
        },
        {
            "inputs": [],
            "name": "gasReserve",
            "outputs": [
                {
                    "internalType": "uint256",
                    "name": "",
                    "type": "uint256"
                }
            ],
            "stateMutability": "view",
            "type": "function"
        },
        {
            "inputs": [],
            "name": "maxWorkerCount",
            "outputs": [
                {
                    "internalType": "uint256",
                    "name": "",
                    "type": "uint256"
                }
            ],
            "stateMutability": "view",
            "type": "function"
        },
        {
            "inputs": [],
            "name": "maximumRecipientDeposit",
            "outputs": [
                {
                    "internalType": "uint256",
                    "name": "",
                    "type": "uint256"
                }
            ],
            "stateMutability": "view",
            "type": "function"
        },
        {
            "inputs": [],
            "name": "minimumStake",
            "outputs": [
                {
                    "internalType": "uint256",
                    "name": "",
                    "type": "uint256"
                }
            ],
            "stateMutability": "view",
            "type": "function"
        },
        {
            "inputs": [],
            "name": "minimumUnstakeDelay",
            "outputs": [
                {
                    "internalType": "uint256",
                    "name": "",
                    "type": "uint256"
                }
            ],
            "stateMutability": "view",
            "type": "function"
        },
        {
            "inputs": [],
            "name": "penalizer",
            "outputs": [
                {
                    "internalType": "address",
                    "name": "",
                    "type": "address"
                }
            ],
            "stateMutability": "view",
            "type": "function"
        },
        {
            "inputs": [],
            "name": "postOverhead",
            "outputs": [
                {
                    "internalType": "uint256",
                    "name": "",
                    "type": "uint256"
                }
            ],
            "stateMutability": "view",
            "type": "function"
        },
        {
            "inputs": [],
            "name": "stakeManager",
            "outputs": [
                {
                    "internalType": "contract IStakeManager",
                    "name": "",
                    "type": "address"
                }
            ],
            "stateMutability": "view",
            "type": "function"
        },
        {
            "inputs": [],
            "name": "versionHub",
            "outputs": [
                {
                    "internalType": "string",
                    "name": "",
                    "type": "string"
                }
            ],
            "stateMutability": "view",
            "type": "function"
        },
        {
            "inputs": [
                {
                    "internalType": "address",
                    "name": "",
                    "type": "address"
                }
            ],
            "name": "workerCount",
            "outputs": [
                {
                    "internalType": "uint256",
                    "name": "",
                    "type": "uint256"
                }
            ],
            "stateMutability": "view",
            "type": "function"
        },
        {
            "inputs": [
                {
                    "internalType": "address",
                    "name": "",
                    "type": "address"
                }
            ],
            "name": "workerToManager",
            "outputs": [
                {
                    "internalType": "address",
                    "name": "",
                    "type": "address"
                }
            ],
            "stateMutability": "view",
            "type": "function"
        },
        {
            "inputs": [
                {
                    "internalType": "uint256",
                    "name": "baseRelayFee",
                    "type": "uint256"
                },
                {
                    "internalType": "uint256",
                    "name": "pctRelayFee",
                    "type": "uint256"
                },
                {
                    "internalType": "string",
                    "name": "url",
                    "type": "string"
                }
            ],
            "name": "registerRelayServer",
            "outputs": [],
            "stateMutability": "nonpayable",
            "type": "function"
        },
        {
            "inputs": [
                {
                    "internalType": "address[]",
                    "name": "newRelayWorkers",
                    "type": "address[]"
                }
            ],
            "name": "addRelayWorkers",
            "outputs": [],
            "stateMutability": "nonpayable",
            "type": "function"
        },
        {
            "inputs": [
                {
                    "internalType": "address",
                    "name": "target",
                    "type": "address"
                }
            ],
            "name": "depositFor",
            "outputs": [],
            "stateMutability": "payable",
            "type": "function"
        },
        {
            "inputs": [
                {
                    "internalType": "address",
                    "name": "target",
                    "type": "address"
                }
            ],
            "name": "balanceOf",
            "outputs": [
                {
                    "internalType": "uint256",
                    "name": "",
                    "type": "uint256"
                }
            ],
            "stateMutability": "view",
            "type": "function"
        },
        {
            "inputs": [
                {
                    "internalType": "uint256",
                    "name": "amount",
                    "type": "uint256"
                },
                {
                    "internalType": "address payable",
                    "name": "dest",
                    "type": "address"
                }
            ],
            "name": "withdraw",
            "outputs": [],
            "stateMutability": "nonpayable",
            "type": "function"
        },
        {
            "inputs": [
                {
                    "internalType": "uint256",
                    "name": "paymasterMaxAcceptanceBudget",
                    "type": "uint256"
                },
                {
                    "components": [
                        {
                            "components": [
                                {
                                    "internalType": "address",
                                    "name": "from",
                                    "type": "address"
                                },
                                {
                                    "internalType": "address",
                                    "name": "to",
                                    "type": "address"
                                },
                                {
                                    "internalType": "uint256",
                                    "name": "value",
                                    "type": "uint256"
                                },
                                {
                                    "internalType": "uint256",
                                    "name": "gas",
                                    "type": "uint256"
                                },
                                {
                                    "internalType": "uint256",
                                    "name": "nonce",
                                    "type": "uint256"
                                },
                                {
                                    "internalType": "bytes",
                                    "name": "data",
                                    "type": "bytes"
                                }
                            ],
                            "internalType": "struct IForwarder.ForwardRequest",
                            "name": "request",
                            "type": "tuple"
                        },
                        {
                            "components": [
                                {
                                    "internalType": "uint256",
                                    "name": "gasPrice",
                                    "type": "uint256"
                                },
                                {
                                    "internalType": "uint256",
                                    "name": "pctRelayFee",
                                    "type": "uint256"
                                },
                                {
                                    "internalType": "uint256",
                                    "name": "baseRelayFee",
                                    "type": "uint256"
                                },
                                {
                                    "internalType": "address",
                                    "name": "relayWorker",
                                    "type": "address"
                                },
                                {
                                    "internalType": "address",
                                    "name": "paymaster",
                                    "type": "address"
                                },
                                {
                                    "internalType": "bytes",
                                    "name": "paymasterData",
                                    "type": "bytes"
                                },
                                {
                                    "internalType": "uint256",
                                    "name": "clientId",
                                    "type": "uint256"
                                },
                                {
                                    "internalType": "address",
                                    "name": "forwarder",
                                    "type": "address"
                                }
                            ],
                            "internalType": "struct GsnTypes.RelayData",
                            "name": "relayData",
                            "type": "tuple"
                        }
                    ],
                    "internalType": "struct GsnTypes.RelayRequest",
                    "name": "relayRequest",
                    "type": "tuple"
                },
                {
                    "internalType": "bytes",
                    "name": "signature",
                    "type": "bytes"
                },
                {
                    "internalType": "bytes",
                    "name": "approvalData",
                    "type": "bytes"
                },
                {
                    "internalType": "uint256",
                    "name": "externalGasLimit",
                    "type": "uint256"
                }
            ],
            "name": "relayCall",
            "outputs": [
                {
                    "internalType": "bool",
                    "name": "paymasterAccepted",
                    "type": "bool"
                },
                {
                    "internalType": "bytes",
                    "name": "returnValue",
                    "type": "bytes"
                }
            ],
            "stateMutability": "nonpayable",
            "type": "function"
        },
        {
            "inputs": [
                {
                    "components": [
                        {
                            "components": [
                                {
                                    "internalType": "address",
                                    "name": "from",
                                    "type": "address"
                                },
                                {
                                    "internalType": "address",
                                    "name": "to",
                                    "type": "address"
                                },
                                {
                                    "internalType": "uint256",
                                    "name": "value",
                                    "type": "uint256"
                                },
                                {
                                    "internalType": "uint256",
                                    "name": "gas",
                                    "type": "uint256"
                                },
                                {
                                    "internalType": "uint256",
                                    "name": "nonce",
                                    "type": "uint256"
                                },
                                {
                                    "internalType": "bytes",
                                    "name": "data",
                                    "type": "bytes"
                                }
                            ],
                            "internalType": "struct IForwarder.ForwardRequest",
                            "name": "request",
                            "type": "tuple"
                        },
                        {
                            "components": [
                                {
                                    "internalType": "uint256",
                                    "name": "gasPrice",
                                    "type": "uint256"
                                },
                                {
                                    "internalType": "uint256",
                                    "name": "pctRelayFee",
                                    "type": "uint256"
                                },
                                {
                                    "internalType": "uint256",
                                    "name": "baseRelayFee",
                                    "type": "uint256"
                                },
                                {
                                    "internalType": "address",
                                    "name": "relayWorker",
                                    "type": "address"
                                },
                                {
                                    "internalType": "address",
                                    "name": "paymaster",
                                    "type": "address"
                                },
                                {
                                    "internalType": "bytes",
                                    "name": "paymasterData",
                                    "type": "bytes"
                                },
                                {
                                    "internalType": "uint256",
                                    "name": "clientId",
                                    "type": "uint256"
                                },
                                {
                                    "internalType": "address",
                                    "name": "forwarder",
                                    "type": "address"
                                }
                            ],
                            "internalType": "struct GsnTypes.RelayData",
                            "name": "relayData",
                            "type": "tuple"
                        }
                    ],
                    "internalType": "struct GsnTypes.RelayRequest",
                    "name": "relayRequest",
                    "type": "tuple"
                },
                {
                    "internalType": "bytes",
                    "name": "signature",
                    "type": "bytes"
                },
                {
                    "internalType": "bytes",
                    "name": "approvalData",
                    "type": "bytes"
                },
                {
                    "components": [
                        {
                            "internalType": "uint256",
                            "name": "acceptanceBudget",
                            "type": "uint256"
                        },
                        {
                            "internalType": "uint256",
                            "name": "preRelayedCallGasLimit",
                            "type": "uint256"
                        },
                        {
                            "internalType": "uint256",
                            "name": "postRelayedCallGasLimit",
                            "type": "uint256"
                        }
                    ],
                    "internalType": "struct IPaymaster.GasLimits",
                    "name": "gasLimits",
                    "type": "tuple"
                },
                {
                    "internalType": "uint256",
                    "name": "totalInitialGas",
                    "type": "uint256"
                },
                {
                    "internalType": "uint256",
                    "name": "maxPossibleGas",
                    "type": "uint256"
                }
            ],
            "name": "innerRelayCall",
            "outputs": [
                {
                    "internalType": "enum IRelayHub.RelayCallStatus",
                    "name": "",
                    "type": "uint8"
                },
                {
                    "internalType": "bytes",
                    "name": "",
                    "type": "bytes"
                }
            ],
            "stateMutability": "nonpayable",
            "type": "function"
        },
        {
            "inputs": [
                {
                    "internalType": "uint256",
                    "name": "gasUsed",
                    "type": "uint256"
                },
                {
                    "components": [
                        {
                            "internalType": "uint256",
                            "name": "gasPrice",
                            "type": "uint256"
                        },
                        {
                            "internalType": "uint256",
                            "name": "pctRelayFee",
                            "type": "uint256"
                        },
                        {
                            "internalType": "uint256",
                            "name": "baseRelayFee",
                            "type": "uint256"
                        },
                        {
                            "internalType": "address",
                            "name": "relayWorker",
                            "type": "address"
                        },
                        {
                            "internalType": "address",
                            "name": "paymaster",
                            "type": "address"
                        },
                        {
                            "internalType": "bytes",
                            "name": "paymasterData",
                            "type": "bytes"
                        },
                        {
                            "internalType": "uint256",
                            "name": "clientId",
                            "type": "uint256"
                        },
                        {
                            "internalType": "address",
                            "name": "forwarder",
                            "type": "address"
                        }
                    ],
                    "internalType": "struct GsnTypes.RelayData",
                    "name": "relayData",
                    "type": "tuple"
                }
            ],
            "name": "calculateCharge",
            "outputs": [
                {
                    "internalType": "uint256",
                    "name": "",
                    "type": "uint256"
                }
            ],
            "stateMutability": "view",
            "type": "function"
        },
        {
            "inputs": [
                {
                    "internalType": "address",
                    "name": "relayManager",
                    "type": "address"
                }
            ],
            "name": "isRelayManagerStaked",
            "outputs": [
                {
                    "internalType": "bool",
                    "name": "",
                    "type": "bool"
                }
            ],
            "stateMutability": "view",
            "type": "function"
        },
        {
            "inputs": [
                {
                    "internalType": "address",
                    "name": "relayWorker",
                    "type": "address"
                },
                {
                    "internalType": "address payable",
                    "name": "beneficiary",
                    "type": "address"
                }
            ],
            "name": "penalize",
            "outputs": [],
            "stateMutability": "nonpayable",
            "type": "function"
        }
    ],
    "bytecode": "0x60c0604052601b60808190527f322e302e302b6f70656e67736e2e6875622e6972656c6179687562000000000060a0908152620000409160009190620000c5565b503480156200004e57600080fd5b50604051620032d3380380620032d383398101604081905262000071916200016a565b600880546001600160a01b039a8b166001600160a01b0319918216179091556009805499909a1698169790971790975560079490945560069290925560055560045560035560029190915560015562000205565b828054600181600116156101000203166002900490600052602060002090601f016020900481019282601f106200010857805160ff191683800117855562000138565b8280016001018555821562000138579182015b82811115620001385782518255916020019190600101906200011b565b50620001469291506200014a565b5090565b6200016791905b8082111562000146576000815560010162000151565b90565b60008060008060008060008060006101208a8c03121562000189578485fd5b89516200019681620001ec565b60208b0151909950620001a981620001ec565b8098505060408a0151965060608a0151955060808a0151945060a08a0151935060c08a0151925060e08a015191506101008a015190509295985092959850929598565b6001600160a01b03811681146200020257600080fd5b50565b6130be80620002156000396000f3fe6080604052600436106101345760003560e01c8063aa67c919116100ab578063d904c7321161006f578063d904c7321461032a578063e5fad9781461034c578063ebcd31ac14610361578063ec5ffac214610381578063eea7570e14610396578063fbb44607146103ab57610134565b8063aa67c919146102ad578063ba3ecc5b146102c0578063c2da0786146102d5578063c4775a68146102f5578063ca998f561461030a57610134565b806370a08231116100fd57806370a082311461020157806371116320146102215780637542ff951461023657806383b718711461025857806383fea4ef1461027857806386a16f8f1461028d57610134565b8062f714ce14610139578063194ac3071461015b57806327b4256a146101915780632ad311b5146101bf5780633a3e83ac146101ec575b600080fd5b34801561014557600080fd5b5061015961015436600461220b565b6103d9565b005b34801561016757600080fd5b5061017b610176366004611f33565b6104d5565b60405161018891906127e3565b60405180910390f35b34801561019d57600080fd5b506101b16101ac36600461227d565b6104e7565b6040516101889291906127c0565b3480156101cb57600080fd5b506101df6101da366004611f33565b610b3f565b60405161018891906127b5565b3480156101f857600080fd5b5061017b610bd2565b34801561020d57600080fd5b5061017b61021c366004611f33565b610bd8565b34801561022d57600080fd5b5061017b610bf3565b34801561024257600080fd5b5061024b610bf9565b604051610188919061266a565b34801561026457600080fd5b50610159610273366004612320565b610c08565b34801561028457600080fd5b5061017b610cb1565b34801561029957600080fd5b5061017b6102a836600461222f565b610cb7565b6101596102bb366004611f33565b610d1b565b3480156102cc57600080fd5b5061017b610dc4565b3480156102e157600080fd5b506101596102f0366004611f87565b610dca565b34801561030157600080fd5b5061024b610f4b565b34801561031657600080fd5b5061024b610325366004611f33565b610f5a565b34801561033657600080fd5b5061033f610f75565b60405161018891906128b6565b34801561035857600080fd5b5061017b611003565b34801561036d57600080fd5b5061015961037c366004611f4f565b611009565b34801561038d57600080fd5b5061017b611187565b3480156103a257600080fd5b5061017b61118d565b3480156103b757600080fd5b506103cb6103c6366004612100565b611193565b604051610188929190612895565b336000818152600c60205260409020548311156104115760405162461bcd60e51b815260040161040890612bc1565b60405180910390fd5b6001600160a01b0381166000908152600c602052604090205461043a908463ffffffff61151316565b6001600160a01b038083166000908152600c60205260408082209390935591519084169185156108fc02918691818181858888f19350505050158015610484573d6000803e3d6000fd5b50816001600160a01b0316816001600160a01b03167fd1c19fbcd4551a5edfb66d43d2e337c04837afda3482b42bdf569a8fccdae5fb856040516104c891906127e3565b60405180910390a3505050565b600b6020526000908152604090205481565b600060606104f3611d28565b6105486105008a80612e7f565b61050e9060a0810190612e38565b8080601f01602080910402602001604051908101604052809392919081815260200183838082843760009201829052509250611555915050565b6001600160e01b03191660208201523332146105765760405162461bcd60e51b815260040161040890612abe565b336000908152600a60205260409020546001600160a01b03166105ab5760405162461bcd60e51b815260040161040890612c87565b336105b960208b018b612e94565b6105ca906080810190606001611f33565b6001600160a01b0316146105f05760405162461bcd60e51b815260040161040890612bed565b336000908152600a6020526040902054610612906001600160a01b0316610b3f565b61062e5760405162461bcd60e51b815260040161040890612a87565b3a61063c60208b018b612e94565b35111561065b5760405162461bcd60e51b8152600401610408906129ac565b4584111561067b5760405162461bcd60e51b8152600401610408906128c9565b6106868a8a8661158e565b60e0830152608082015260065460009060405a603f02816106a357fe5b040390505a8261010001818152505060006005546004548784010101905060006060306001600160a01b03168463fbb4460760e01b8f8f8f8f8f8c608001515a8c038e60e00151604051602401610701989796959493929190612d58565b60408051601f198184030181529181526020820180516001600160e01b03166001600160e01b031990941693909317909252905161073f9190612545565b60006040518083038160008787f1925050503d806000811461077d576040519150601f19603f3d011682016040523d82523d6000602084013e610782565b606091505b50811515875290925090505a6101008601510360c086015280516107af90820160209081019083016120a3565b8660a001876060018290528260068111156107c657fe5b60068111156107d157fe5b9052505060608501515115610822577fa1478a4242848419db824250a0dddc645dca0d6a9b12ab1fd79b00145a0ba98e8560a001518660600151604051610819929190612895565b60405180910390a15b5050505080600001516109625760808101515160c0820151108015610889575060028160a00151600681111561085457fe5b148061086f575060038160a00151600681111561086d57fe5b145b80610889575060048160a00151600681111561088757fe5b145b15610962576000925061089c8980612e7f565b6108aa906020810190611f33565b6001600160a01b03166108c060208b018b612e94565b6108d19060a0810190608001611f33565b336000908152600a60205260409020546001600160a01b0391821691167fddb88484d11f800b80fe63aa67488ec56ee001d85896d528912c5d850cbcd06a6109198d80612e7f565b61092a906040810190602001611f33565b3386602001518760c00151886060015160405161094b95949392919061267e565b60405180910390a460600151600092509050610b33565b60006004545a86030190506000610980826102a860208e018e612e94565b90506109d181600c60008e806020019061099a9190612e94565b6109ab9060a0810190608001611f33565b6001600160a01b031681526020810191909152604001600020549063ffffffff61151316565b600c60006109e260208f018f612e94565b6109f39060a0810190608001611f33565b6001600160a01b0390811682526020808301939093526040918201600090812094909455338452600a835281842054168352600c909152902054610a3d908263ffffffff61172e16565b336000908152600a60209081526040808320546001600160a01b03168352600c909152902055610a6d8b80612e7f565b610a7b906020810190611f33565b336000818152600a60205260409020546001600160a01b0392831692167fc9aa709786a3d5fe2cc947abc1ba8cbb0f6decb57aa74b84eb7f558125fee454610ac38f80612e7f565b610ad4906040810190602001611f33565b8f8060200190610ae49190612e94565b610af59060a0810190608001611f33565b88602001518960a0015188604051610b119594939291906126f0565b60405180910390a4600160405180602001604052806000815250945094505050505b97509795505050505050565b600854600154600254604051636de8dd4160e01b81526000936001600160a01b031692636de8dd4192610b7a92879230929091600401612736565b60206040518083038186803b158015610b9257600080fd5b505afa158015610ba6573d6000803e3d6000fd5b505050506040513d601f19601f82011682018060405250810190610bca9190611ff3565b90505b919050565b60035481565b6001600160a01b03166000908152600c602052604090205490565b60025481565b6008546001600160a01b031681565b33610c1281610b3f565b610c2e5760405162461bcd60e51b815260040161040890612a87565b6001600160a01b0381166000908152600b6020526040902054610c635760405162461bcd60e51b815260040161040890612b05565b806001600160a01b03167f77f2d8afec4b9d82ffa0dea525320620292bd1067f575964994d5c4501479aed86868686604051610ca29493929190612e18565b60405180910390a25050505050565b60045481565b6000610d12610d016064610cf5610cd860208701358363ffffffff61172e16565b610ce988883563ffffffff61175316565b9063ffffffff61175316565b9063ffffffff61178d16565b60408401359063ffffffff61172e16565b90505b92915050565b6003543490811115610d3f5760405162461bcd60e51b815260040161040890612a5e565b6001600160a01b0382166000908152600c6020526040902054610d68908263ffffffff61172e16565b6001600160a01b0383166000818152600c6020526040908190209290925590513391907f8752a472e571a816aea92eec8dae9baf628e840f4929fbcc2d155e6233ff68a790610db89085906127e3565b60405180910390a35050565b60055481565b336000818152600b6020526040902080548301908190556007541015610e025760405162461bcd60e51b815260040161040890612b97565b610e0b81610b3f565b610e275760405162461bcd60e51b815260040161040890612a87565b60005b82811015610ef1576000600a81868685818110610e4357fe5b9050602002016020810190610e589190611f33565b6001600160a01b0390811682526020820192909252604001600020541614610e925760405162461bcd60e51b8152600401610408906128f7565b81600a6000868685818110610ea357fe5b9050602002016020810190610eb89190611f33565b6001600160a01b039081168252602082019290925260400160002080546001600160a01b03191692909116919091179055600101610e2a565b506001600160a01b0381166000818152600b6020526040908190205490517febf4a9bffb39f7c5dbf3f65540183b9381ae226ac3d0a45b4cad484713bd4a2891610f3e918791879161275f565b60405180910390a2505050565b6009546001600160a01b031681565b600a602052600090815260409020546001600160a01b031681565b6000805460408051602060026001851615610100026000190190941693909304601f81018490048402820184019092528181529291830182828015610ffb5780601f10610fd057610100808354040283529160200191610ffb565b820191906000526020600020905b815481529060010190602001808311610fde57829003601f168201915b505050505081565b60075481565b6009546001600160a01b031633146110335760405162461bcd60e51b815260040161040890612b2f565b6001600160a01b038083166000908152600a6020526040902054168061106b5760405162461bcd60e51b815260040161040890612c87565b61107481610b3f565b6110905760405162461bcd60e51b815260040161040890612a87565b611098611d8d565b60085460405163c345315360e01b81526001600160a01b039091169063c3453153906110c890859060040161266a565b60806040518083038186803b1580156110e057600080fd5b505afa1580156110f4573d6000803e3d6000fd5b505050506040513d601f19601f8201168201806040525081019061111891906121be565b600854815160405163026822bd60e21b81529293506001600160a01b03909116916309a08af49161114f91869188916004016126cc565b600060405180830381600087803b15801561116957600080fd5b505af115801561117d573d6000803e3d6000fd5b5050505050505050565b60015481565b60065481565b6000606061119f611dbe565b3330146111be5760405162461bcd60e51b81526004016104089061292e565b600c60006111cf60208e018e612e94565b6111e09060a0810190608001611f33565b6001600160a01b0316815260208101919091526040908101600020548252516372e0922360e11b90611220908d908d908d908d908d908b90602401612dca565b60408051601f19818403018152919052602080820180516001600160e01b03166001600160e01b03199094169390931790925260a083015260009060609061126a908e018e612e94565b61127b9060a0810190608001611f33565b6001600160a01b031688602001358460a0015160405161129b9190612545565b60006040518083038160008787f1925050503d80600081146112d9576040519150601f19603f3d011682016040523d82523d6000602084013e6112de565b606091505b509092509050816112fd576112f2816117cf565b6112fd6002826117de565b80806020019051810190611311919061205e565b151560c08501526080840152506000905061132d8c8c8c611817565b60608501521515604084015290508061134f5761134f600383606001516117de565b8160c00151801561136257508160400151155b1561137657611376600483606001516117de565b50638e9483b060e01b816080015182604001515a88038e806020019061139c9190612e94565b6040516024016113af9493929190612862565b60408051601f19818403018152919052602080820180516001600160e01b03166001600160e01b03199094169390931790925260a08301526000906060906113f9908e018e612e94565b61140a9060a0810190608001611f33565b6001600160a01b031688604001358460a0015160405161142a9190612545565b60006040518083038160008787f1925050503d8060008114611468576040519150601f19603f3d011682016040523d82523d6000602084013e61146d565b606091505b509150915081611482576114826005826117de565b50508051600c600061149760208f018f612e94565b6114a89060a0810190608001611f33565b6001600160a01b03166001600160a01b031681526020019081526020016000205410156114e9576114e96006604051806020016040528060008152506117de565b80604001516114f95760016114fc565b60005b816060015192509250509850989650505050505050565b6000610d1283836040518060400160405280601e81526020017f536166654d6174683a207375627472616374696f6e206f766572666c6f770000815250611a00565b6000816004018351101561157b5760405162461bcd60e51b815260040161040890612c50565b5001602001516001600160e01b03191690565b611596611df9565b60006115a56020850185612e94565b6115b69060a0810190608001611f33565b6001600160a01b0316635ea54eee61c3506040518263ffffffff1660e01b815260040160606040518083038187803b1580156115f157600080fd5b5086fa158015611605573d6000803e3d6000fd5b50505050506040513d601f19601f8201168201806040525081019061162a91906120c3565b805190925085101561164e5760405162461bcd60e51b8152600401610408906129d7565b61168c61165b8580612e7f565b606001356116808460400151611680866020015160045461172e90919063ffffffff16565b9063ffffffff61172e16565b9050808310156116ae5760405162461bcd60e51b815260040161040890612a0c565b60006116c1826102a86020880188612e94565b9050600c60006116d46020880188612e94565b6116e59060a0810190608001611f33565b6001600160a01b03166001600160a01b03168152602001908152602001600020548111156117255760405162461bcd60e51b815260040161040890612c19565b50935093915050565b600082820183811015610d125760405162461bcd60e51b815260040161040890612975565b60008261176257506000610d15565b8282028284828161176f57fe5b0414610d125760405162461bcd60e51b815260040161040890612b56565b6000610d1283836040518060400160405280601a81526020017f536166654d6174683a206469766973696f6e206279207a65726f000000000000815250611a2c565b6117db81610400611a63565b50565b606082826040516020016117f3929190612895565b604051602081830303815290604052905061180d816117cf565b8051602082018181fd5b6000806060611824611e1a565b606061182f88611a74565b9092509050600061185d61184660208b018b612e94565b6118589061010081019060e001611f33565b611b9e565b905061186c60208a018a612e94565b61187e9061010081019060e001611f33565b6001600160a01b031663cdf5735a60e01b84836040518060400160405280600c81526020016b14995b185e54995c5d595cdd60a21b8152506040518060800160405280604a815260200161303f604a91396040518060e0016040528060a18152602001612f9e60a191396040516020016118f891906125c4565b60408051601f1981840301815290829052611917939291602001612561565b60405160208183030381529060405280519060200120868d8d60405160240161194596959493929190612cb5565b60408051601f198184030181529181526020820180516001600160e01b03166001600160e01b03199094169390931790925290516119839190612545565b6000604051808303816000865af19150503d80600081146119c0576040519150601f19603f3d011682016040523d82523d6000602084013e6119c5565b606091505b50909650935085156119eb57838060200190518101906119e5919061200f565b90955093505b6119f4846117cf565b50505093509350939050565b60008184841115611a245760405162461bcd60e51b815260040161040891906128b6565b505050900390565b60008183611a4d5760405162461bcd60e51b815260040161040891906128b6565b506000838581611a5957fe5b0495945050505050565b8082511115611a70578082525b5050565b611a7c611e1a565b6040805160c0810190915260609080611a958580612e7f565b611aa3906020810190611f33565b6001600160a01b03168152602001611abb8580612e7f565b611acc906040810190602001611f33565b6001600160a01b03168152602001611ae48580612e7f565b604001358152602001611af78580612e7f565b606001358152602001611b0a8580612e7f565b608001358152602001611b1d8580612e7f565b611b2b9060a0810190612e38565b8080601f01602080910402602001604051908101604052809392919081815260200183838082843760009201919091525050509152509150611b78611b736020850185612e94565b611c1e565b604051602001611b8891906127e3565b6040516020818303038152906040529050915091565b6040805160c0810182526017608082019081527f47534e2052656c61796564205472616e73616374696f6e00000000000000000060a083015281528151808301835260018152601960f91b602082810191909152820152600091610bca91908101611c07611cd8565b8152602001846001600160a01b0316815250611cdc565b60006040518060e0016040528060a18152602001612f9e60a191398051602091820120908335908401356040850135611c5d6080870160608801611f33565b611c6d60a0880160808901611f33565b611c7e610100890160e08a01611f33565b611c8b60a08a018a612e38565b604051611c99929190612535565b604051908190038120611cbb989796959493929160c08c013590602001612818565b604051602081830303815290604052805190602001209050919050565b4690565b6000604051611cea90612600565b604051809103902082600001518051906020012083602001518051906020012084604001518560600151604051602001611cbb9594939291906127ec565b60405180610140016040528060001515815260200160006001600160e01b03191681526020016060815260200160608152602001611d64611df9565b815260200160008152602001600081526020016000815260200160008152602001606081525090565b604051806080016040528060008152602001600081526020016000815260200160006001600160a01b031681525090565b6040805160e08101825260008082526020820181905291810182905260608082018190526080820181905260a082015260c081019190915290565b60405180606001604052806000815260200160008152602001600081525090565b6040518060c0016040528060006001600160a01b0316815260200160006001600160a01b03168152602001600081526020016000815260200160008152602001606081525090565b8035610d1581612f7a565b60008083601f840112611e7e578182fd5b50813567ffffffffffffffff811115611e95578182fd5b602083019150836020828501011115611ead57600080fd5b9250929050565b600082601f830112611ec4578081fd5b815167ffffffffffffffff811115611eda578182fd5b611eed601f8201601f1916602001612ea9565b9150808252836020828501011115611f0457600080fd5b611f15816020840160208601612f4a565b5092915050565b600060408284031215611f2d578081fd5b50919050565b600060208284031215611f44578081fd5b8135610d1281612f7a565b60008060408385031215611f61578081fd5b8235611f6c81612f7a565b91506020830135611f7c81612f7a565b809150509250929050565b60008060208385031215611f99578182fd5b823567ffffffffffffffff80821115611fb0578384fd5b81850186601f820112611fc1578485fd5b8035925081831115611fd1578485fd5b8660208085028301011115611fe4578485fd5b60200196919550909350505050565b600060208284031215612004578081fd5b8151610d1281612f8f565b60008060408385031215612021578182fd5b825161202c81612f8f565b602084015190925067ffffffffffffffff811115612048578182fd5b61205485828601611eb4565b9150509250929050565b60008060408385031215612070578182fd5b825167ffffffffffffffff811115612086578283fd5b61209285828601611eb4565b9250506020830151611f7c81612f8f565b600080604083850312156120b5578182fd5b82516007811061202c578283fd5b6000606082840312156120d4578081fd5b6120de6060612ea9565b8251815260208301516020820152604083015160408201528091505092915050565b600080600080600080600080888a0361010081121561211d578485fd5b893567ffffffffffffffff80821115612134578687fd5b6121408d838e01611f1c565b9a5060208c0135915080821115612155578687fd5b6121618d838e01611e6d565b909a50985060408c0135915080821115612179578687fd5b506121868c828d01611e6d565b9097509550506060605f198201121561219d578384fd5b5096999598509396929550909360608301935060c08301359260e001359150565b6000608082840312156121cf578081fd5b6121d96080612ea9565b82518152602083015160208201526040830151604082015260608301516121ff81612f7a565b60608201529392505050565b6000806040838503121561221d578182fd5b823591506020830135611f7c81612f7a565b60008060408385031215612241578182fd5b82359150602083013567ffffffffffffffff81111561225e578182fd5b8084016101008187031215612271578283fd5b80925050509250929050565b600080600080600080600060a0888a031215612297578081fd5b87359650602088013567ffffffffffffffff808211156122b5578283fd5b6122c18b838c01611f1c565b975060408a01359150808211156122d6578283fd5b6122e28b838c01611e6d565b909750955060608a01359150808211156122fa578283fd5b506123078a828b01611e6d565b989b979a50959894979596608090950135949350505050565b60008060008060608587031215612335578182fd5b8435935060208501359250604085013567ffffffffffffffff811115612359578283fd5b61236587828801611e6d565b95989497509550505050565b6001600160a01b03169052565b60008284528282602086013780602084860101526020601f19601f85011685010190509392505050565b600081518084526123c0816020860160208601612f4a565b601f01601f19169290920160200192915050565b600061010082358452602083013560208501526040830135604085015260608301356123ff81612f7a565b6001600160a01b03908116606086015260808401359061241e82612f7a565b16608085015261243160a0840184612ed0565b8260a0870152612444838701828461237e565b60c086013560c088015260e0860135935061245e84612f7a565b61246b60e0880185612371565b9695505050505050565b6000813560be1983360301811261248a578182fd5b60408452820180359061249c82612f7a565b6001600160a01b03918216604086810191909152810191806124c18460208501611e62565b1660608701525081356080860152606081013560a0860152608081013560c08601526124f060a0820182612ed0565b925060c060e08701526125086101008701848361237e565b9150506125186020850185612f15565b9150848103602086015261252c81836123d4565b95945050505050565b6000828483379101908152919050565b60008251612557818460208701612f4a565b9190910192915050565b60008451612573818460208901612f4a565b808301600560fb1b815285519150612592826001830160208901612f4a565b818101600b60fa1b6001820152855192506125b4836002830160208901612f4a565b9091016002019695505050505050565b60007352656c6179446174612072656c6179446174612960601b825282516125f3816014850160208701612f4a565b9190910160140192915050565b7f454950373132446f6d61696e28737472696e67206e616d652c737472696e672081527f76657273696f6e2c75696e7432353620636861696e49642c6164647265737320602082015271766572696679696e67436f6e74726163742960701b604082015260520190565b6001600160a01b0391909116815260200190565b6001600160a01b038681168252851660208201526001600160e01b0319841660408201526060810183905260a0608082018190526000906126c1908301846123a8565b979650505050505050565b6001600160a01b039384168152919092166020820152604081019190915260600190565b6001600160a01b038681168252851660208201526001600160e01b03198416604082015260a0810161272184612f3f565b60608301528260808301529695505050505050565b6001600160a01b0394851681529290931660208301526040820152606081019190915260800190565b6040808252810183905260008460608301825b868110156127a2576020833561278781612f7a565b6001600160a01b031683529283019290910190600101612772565b5060209390930193909352509392505050565b901515815260200190565b60008315158252604060208301526127db60408301846123a8565b949350505050565b90815260200190565b9485526020850193909352604084019190915260608301526001600160a01b0316608082015260a00190565b9889526020890197909752604088019590955260608701939093526001600160a01b039182166080870152811660a08601521660c084015260e08301526101008201526101200190565b60006080825261287560808301876123a8565b851515602084015284604084015282810360608401526126c181856123d4565b60006128a084612f3f565b8252604060208301526127db60408301846123a8565b600060208252610d1260208301846123a8565b602080825260149082015273125b5c1bdcdcda589b194819d85cc81b1a5b5a5d60621b604082015260600190565b60208082526019908201527f7468697320776f726b6572206861732061206d616e6167657200000000000000604082015260600190565b60208082526027908201527f4f6e6c792052656c61794875622073686f756c642063616c6c207468697320666040820152663ab731ba34b7b760c91b606082015260800190565b6020808252601b908201527f536166654d6174683a206164646974696f6e206f766572666c6f770000000000604082015260600190565b602080825260119082015270496e76616c69642067617320707269636560781b604082015260600190565b6020808252818101527f756e6578706563746564206869676820616363657074616e6365427564676574604082015260600190565b60208082526032908201527f4e6f7420656e6f75676820676173206c65667420666f7220696e6e657252656c604082015271617943616c6c20746f20636f6d706c65746560701b606082015260800190565b6020808252600f908201526e6465706f73697420746f6f2062696760881b604082015260600190565b60208082526018908201527f72656c6179206d616e61676572206e6f74207374616b65640000000000000000604082015260600190565b60208082526027908201527f72656c617920776f726b65722063616e6e6f74206265206120736d61727420636040820152661bdb9d1c9858dd60ca1b606082015260800190565b60208082526010908201526f6e6f2072656c617920776f726b65727360801b604082015260600190565b6020808252600d908201526c2737ba103832b730b634bd32b960991b604082015260600190565b60208082526021908201527f536166654d6174683a206d756c7469706c69636174696f6e206f766572666c6f6040820152607760f81b606082015260800190565b60208082526010908201526f746f6f206d616e7920776f726b65727360801b604082015260600190565b602080825260129082015271696e73756666696369656e742066756e647360701b604082015260600190565b6020808252601290820152712737ba1030903934b3b43a103bb7b935b2b960711b604082015260600190565b60208082526019908201527f5061796d61737465722062616c616e636520746f6f206c6f7700000000000000604082015260600190565b6020808252601a908201527f726561644279746573343a206461746120746f6f2073686f7274000000000000604082015260600190565b6020808252601490820152732ab735b737bbb7103932b630bc903bb7b935b2b960611b604082015260600190565b600060a08252612cc58851612f33565b60a083015260018060a01b0360208901511660c0830152604088015160e08301526060880151610100830152608088015161012083015260a088015160c0610140840152612d176101608401826123a8565b8860208501528760408501528381036060850152612d3581886123a8565b9150508281036080840152612d4b81858761237e565b9998505050505050505050565b6000610100808352612d6c8184018c612475565b8381036020850152612d7f818b8d61237e565b9150508281036040840152612d9581888a61237e565b865160608501526020870151608085015260409096015160a0840152505060c081019290925260e09091015295945050505050565b600060808252612ddd6080830189612475565b8281036020840152612df081888a61237e565b8381036040850152612e0381878961237e565b92505050826060830152979650505050505050565b60008582528460208301526060604083015261246b60608301848661237e565b6000808335601e19843603018112612e4e578283fd5b8084018035925067ffffffffffffffff831115612e69578384fd5b60200192505036819003821315611ead57600080fd5b6000823560be19833603018112612557578182fd5b6000823560fe19833603018112612557578182fd5b60405181810167ffffffffffffffff81118282101715612ec857600080fd5b604052919050565b6000808335601e19843603018112612ee6578283fd5b830160208101925035905067ffffffffffffffff811115612f0657600080fd5b803603831315611ead57600080fd5b6000823560fe19833603018112612f2a578182fd5b90910192915050565b6001600160a01b031690565b8060078110610bcd57fe5b60005b83811015612f65578181015183820152602001612f4d565b83811115612f74576000848401525b50505050565b6001600160a01b03811681146117db57600080fd5b80151581146117db57600080fdfe52656c6179446174612875696e743235362067617350726963652c75696e743235362070637452656c61794665652c75696e74323536206261736552656c61794665652c616464726573732072656c6179576f726b65722c61646472657373207061796d61737465722c6164647265737320666f727761726465722c6279746573207061796d6173746572446174612c75696e7432353620636c69656e74496429616464726573732066726f6d2c6164647265737320746f2c75696e743235362076616c75652c75696e74323536206761732c75696e74323536206e6f6e63652c62797465732064617461a26469706673582212203aed185c4945a69a47b1d120bd0f8314c05a4653672f2c271eae76e1d161c6fd64736f6c634300060a0033",
    "immutableReferences": {},
    "source": "/* solhint-disable avoid-low-level-calls */\n/* solhint-disable no-inline-assembly */\n/* solhint-disable not-rely-on-time */\n/* solhint-disable avoid-tx-origin */\n/* solhint-disable bracket-align */\n// SPDX-License-Identifier:MIT\npragma solidity ^0.6.9;\npragma experimental ABIEncoderV2;\n\nimport \"./utils/MinLibBytes.sol\";\nimport \"@openzeppelin/contracts/math/SafeMath.sol\";\n\nimport \"./utils/GsnUtils.sol\";\nimport \"./utils/GsnEip712Library.sol\";\nimport \"./interfaces/GsnTypes.sol\";\nimport \"./interfaces/IRelayHub.sol\";\nimport \"./interfaces/IPaymaster.sol\";\nimport \"./forwarder/IForwarder.sol\";\nimport \"./interfaces/IStakeManager.sol\";\n\ncontract RelayHub is IRelayHub {\n    using SafeMath for uint256;\n\n    string public override versionHub = \"2.0.0+opengsn.hub.irelayhub\";\n\n    uint256 public override minimumStake;\n    uint256 public override minimumUnstakeDelay;\n    uint256 public override maximumRecipientDeposit;\n    uint256 public override gasOverhead;\n    uint256 public override postOverhead;\n    uint256 public override gasReserve;\n    uint256 public override maxWorkerCount;\n    IStakeManager override public stakeManager;\n    address override public penalizer;\n\n    // maps relay worker's address to its manager's address\n    mapping(address => address) public override workerToManager;\n\n    // maps relay managers to the number of their workers\n    mapping(address => uint256) public override workerCount;\n\n    mapping(address => uint256) private balances;\n\n    constructor (\n        IStakeManager _stakeManager,\n        address _penalizer,\n        uint256 _maxWorkerCount,\n        uint256 _gasReserve,\n        uint256 _postOverhead,\n        uint256 _gasOverhead,\n        uint256 _maximumRecipientDeposit,\n        uint256 _minimumUnstakeDelay,\n        uint256 _minimumStake\n    ) public {\n        stakeManager = _stakeManager;\n        penalizer = _penalizer;\n        maxWorkerCount = _maxWorkerCount;\n        gasReserve = _gasReserve;\n        postOverhead = _postOverhead;\n        gasOverhead = _gasOverhead;\n        maximumRecipientDeposit = _maximumRecipientDeposit;\n        minimumUnstakeDelay = _minimumUnstakeDelay;\n        minimumStake =  _minimumStake;\n    }\n\n    function registerRelayServer(uint256 baseRelayFee, uint256 pctRelayFee, string calldata url) external override {\n        address relayManager = msg.sender;\n        require(\n            isRelayManagerStaked(relayManager),\n            \"relay manager not staked\"\n        );\n        require(workerCount[relayManager] > 0, \"no relay workers\");\n        emit RelayServerRegistered(relayManager, baseRelayFee, pctRelayFee, url);\n    }\n\n    function addRelayWorkers(address[] calldata newRelayWorkers) external override {\n        address relayManager = msg.sender;\n        workerCount[relayManager] = workerCount[relayManager] + newRelayWorkers.length;\n        require(workerCount[relayManager] <= maxWorkerCount, \"too many workers\");\n\n        require(\n            isRelayManagerStaked(relayManager),\n            \"relay manager not staked\"\n        );\n\n        for (uint256 i = 0; i < newRelayWorkers.length; i++) {\n            require(workerToManager[newRelayWorkers[i]] == address(0), \"this worker has a manager\");\n            workerToManager[newRelayWorkers[i]] = relayManager;\n        }\n\n        emit RelayWorkersAdded(relayManager, newRelayWorkers, workerCount[relayManager]);\n    }\n\n    function depositFor(address target) public override payable {\n        uint256 amount = msg.value;\n        require(amount <= maximumRecipientDeposit, \"deposit too big\");\n\n        balances[target] = balances[target].add(amount);\n\n        emit Deposited(target, msg.sender, amount);\n    }\n\n    function balanceOf(address target) external override view returns (uint256) {\n        return balances[target];\n    }\n\n    function withdraw(uint256 amount, address payable dest) public override {\n        address payable account = msg.sender;\n        require(balances[account] >= amount, \"insufficient funds\");\n\n        balances[account] = balances[account].sub(amount);\n        dest.transfer(amount);\n\n        emit Withdrawn(account, dest, amount);\n    }\n\n    function verifyGasLimits(\n        uint256 paymasterMaxAcceptanceBudget,\n        GsnTypes.RelayRequest calldata relayRequest,\n        uint256 initialGas\n    )\n    private\n    view\n    returns (IPaymaster.GasLimits memory gasLimits, uint256 maxPossibleGas) {\n        gasLimits =\n            IPaymaster(relayRequest.relayData.paymaster).getGasLimits{gas:50000}();\n\n        require(paymasterMaxAcceptanceBudget >= gasLimits.acceptanceBudget, \"unexpected high acceptanceBudget\");\n\n        maxPossibleGas =\n            gasOverhead.add(\n            gasLimits.preRelayedCallGasLimit).add(\n            gasLimits.postRelayedCallGasLimit).add(\n            relayRequest.request.gas);\n\n        // This transaction must have enough gas to forward the call to the recipient with the requested amount, and not\n        // run out of gas later in this function.\n        require(\n            initialGas >= maxPossibleGas,\n            \"Not enough gas left for innerRelayCall to complete\");\n\n        uint256 maxPossibleCharge = calculateCharge(\n            maxPossibleGas,\n            relayRequest.relayData\n        );\n\n        // We don't yet know how much gas will be used by the recipient, so we make sure there are enough funds to pay\n        // for the maximum possible charge.\n        require(maxPossibleCharge <= balances[relayRequest.relayData.paymaster],\n            \"Paymaster balance too low\");\n    }\n\n    struct RelayCallData {\n        bool success;\n        bytes4 functionSelector;\n        bytes recipientContext;\n        bytes relayedCallReturnValue;\n        IPaymaster.GasLimits gasLimits;\n        RelayCallStatus status;\n        uint256 innerGasUsed;\n        uint256 maxPossibleGas;\n        uint256 gasBeforeInner;\n        bytes retData;\n    }\n\n    function relayCall(\n        uint paymasterMaxAcceptanceBudget,\n        GsnTypes.RelayRequest calldata relayRequest,\n        bytes calldata signature,\n        bytes calldata approvalData,\n        uint externalGasLimit\n    )\n    external\n    override\n    returns (bool paymasterAccepted, bytes memory returnValue)\n    {\n        (signature);\n        RelayCallData memory vars;\n        vars.functionSelector = MinLibBytes.readBytes4(relayRequest.request.data, 0);\n        require(msg.sender == tx.origin, \"relay worker cannot be a smart contract\");\n        require(workerToManager[msg.sender] != address(0), \"Unknown relay worker\");\n        require(relayRequest.relayData.relayWorker == msg.sender, \"Not a right worker\");\n        require(\n            isRelayManagerStaked(workerToManager[msg.sender]),\n            \"relay manager not staked\"\n        );\n        require(relayRequest.relayData.gasPrice <= tx.gasprice, \"Invalid gas price\");\n        require(externalGasLimit <= block.gaslimit, \"Impossible gas limit\");\n\n        (vars.gasLimits, vars.maxPossibleGas) =\n             verifyGasLimits(paymasterMaxAcceptanceBudget, relayRequest, externalGasLimit);\n\n    {\n\n        //How much gas to pass down to innerRelayCall. must be lower than the default 63/64\n        // actually, min(gasleft*63/64, gasleft-GAS_RESERVE) might be enough.\n        uint256 innerGasLimit = gasleft()*63/64-gasReserve;\n        vars.gasBeforeInner = gasleft();\n\n        uint256 _tmpInitialGas = innerGasLimit + externalGasLimit + gasOverhead + postOverhead;\n        // Calls to the recipient are performed atomically inside an inner transaction which may revert in case of\n        // errors in the recipient. In either case (revert or regular execution) the return data encodes the\n        // RelayCallStatus value.\n        (bool success, bytes memory relayCallStatus) = address(this).call{gas:innerGasLimit}(\n            abi.encodeWithSelector(RelayHub.innerRelayCall.selector, relayRequest, signature, approvalData, vars.gasLimits,\n                _tmpInitialGas - gasleft(),\n                vars.maxPossibleGas\n                )\n        );\n        vars.success = success;\n        vars.innerGasUsed = vars.gasBeforeInner-gasleft();\n        (vars.status, vars.relayedCallReturnValue) = abi.decode(relayCallStatus, (RelayCallStatus, bytes));\n        if ( vars.relayedCallReturnValue.length>0 ) {\n            emit TransactionResult(vars.status, vars.relayedCallReturnValue);\n        }\n    }\n    {\n        if (!vars.success) {\n            //Failure cases where the PM doesn't pay\n            if ( (vars.innerGasUsed < vars.gasLimits.acceptanceBudget ) && (\n                    vars.status == RelayCallStatus.RejectedByPreRelayed ||\n                    vars.status == RelayCallStatus.RejectedByForwarder ||\n                    vars.status == RelayCallStatus.RejectedByRecipientRevert  //can only be thrown if rejectOnRecipientRevert==true\n            )) {\n                paymasterAccepted=false;\n\n                emit TransactionRejectedByPaymaster(\n                    workerToManager[msg.sender],\n                    relayRequest.relayData.paymaster,\n                    relayRequest.request.from,\n                    relayRequest.request.to,\n                    msg.sender,\n                    vars.functionSelector,\n                    vars.innerGasUsed,\n                    vars.relayedCallReturnValue);\n                return (false, vars.relayedCallReturnValue);\n            }\n        }\n        // We now perform the actual charge calculation, based on the measured gas used\n        uint256 gasUsed = (externalGasLimit - gasleft()) + gasOverhead;\n        uint256 charge = calculateCharge(gasUsed, relayRequest.relayData);\n\n        balances[relayRequest.relayData.paymaster] = balances[relayRequest.relayData.paymaster].sub(charge);\n        balances[workerToManager[msg.sender]] = balances[workerToManager[msg.sender]].add(charge);\n\n        emit TransactionRelayed(\n            workerToManager[msg.sender],\n            msg.sender,\n            relayRequest.request.from,\n            relayRequest.request.to,\n            relayRequest.relayData.paymaster,\n            vars.functionSelector,\n            vars.status,\n            charge);\n        return (true, \"\");\n    }\n    }\n\n    struct InnerRelayCallData {\n        uint256 balanceBefore;\n        bytes32 preReturnValue;\n        bool relayedCallSuccess;\n        bytes relayedCallReturnValue;\n        bytes recipientContext;\n        bytes data;\n        bool rejectOnRecipientRevert;\n    }\n\n    function innerRelayCall(\n        GsnTypes.RelayRequest calldata relayRequest,\n        bytes calldata signature,\n        bytes calldata approvalData,\n        IPaymaster.GasLimits calldata gasLimits,\n        uint256 totalInitialGas,\n        uint256 maxPossibleGas\n    )\n    external\n    returns (RelayCallStatus, bytes memory)\n    {\n        InnerRelayCallData memory vars;\n        // A new gas measurement is performed inside innerRelayCall, since\n        // due to EIP150 available gas amounts cannot be directly compared across external calls\n\n        // This external function can only be called by RelayHub itself, creating an internal transaction. Calls to the\n        // recipient (preRelayedCall, the relayedCall, and postRelayedCall) are called from inside this transaction.\n        require(msg.sender == address(this), \"Only RelayHub should call this function\");\n\n        // If either pre or post reverts, the whole internal transaction will be reverted, reverting all side effects on\n        // the recipient. The recipient will still be charged for the used gas by the relay.\n\n        // The recipient is no allowed to withdraw balance from RelayHub during a relayed transaction. We check pre and\n        // post state to ensure this doesn't happen.\n        vars.balanceBefore = balances[relayRequest.relayData.paymaster];\n\n        // First preRelayedCall is executed.\n        // Note: we open a new block to avoid growing the stack too much.\n        vars.data = abi.encodeWithSelector(\n            IPaymaster.preRelayedCall.selector,\n                relayRequest, signature, approvalData, maxPossibleGas\n        );\n        {\n            bool success;\n            bytes memory retData;\n            (success, retData) = relayRequest.relayData.paymaster.call{gas:gasLimits.preRelayedCallGasLimit}(vars.data);\n            if (!success) {\n                GsnEip712Library.truncateInPlace(retData);\n                revertWithStatus(RelayCallStatus.RejectedByPreRelayed, retData);\n            }\n            (vars.recipientContext, vars.rejectOnRecipientRevert) = abi.decode(retData, (bytes,bool));\n        }\n\n        // The actual relayed call is now executed. The sender's address is appended at the end of the transaction data\n\n        {\n            bool forwarderSuccess;\n            (forwarderSuccess, vars.relayedCallSuccess, vars.relayedCallReturnValue) = GsnEip712Library.execute(relayRequest, signature);\n            if ( !forwarderSuccess ) {\n                revertWithStatus(RelayCallStatus.RejectedByForwarder, vars.relayedCallReturnValue);\n            }\n\n            if (vars.rejectOnRecipientRevert && !vars.relayedCallSuccess) {\n                //we trusted the recipient, but it reverted...\n                revertWithStatus(RelayCallStatus.RejectedByRecipientRevert, vars.relayedCallReturnValue);\n            }\n        }\n        // Finally, postRelayedCall is executed, with the relayedCall execution's status and a charge estimate\n        // We now determine how much the recipient will be charged, to pass this value to postRelayedCall for accurate\n        // accounting.\n        vars.data = abi.encodeWithSelector(\n            IPaymaster.postRelayedCall.selector,\n            vars.recipientContext,\n            vars.relayedCallSuccess,\n            totalInitialGas - gasleft(), /*gasUseWithoutPost*/\n            relayRequest.relayData\n        );\n\n        {\n        (bool successPost,bytes memory ret) = relayRequest.relayData.paymaster.call{gas:gasLimits.postRelayedCallGasLimit}(vars.data);\n\n        if (!successPost) {\n            revertWithStatus(RelayCallStatus.PostRelayedFailed, ret);\n        }\n        }\n\n        if (balances[relayRequest.relayData.paymaster] < vars.balanceBefore) {\n            revertWithStatus(RelayCallStatus.PaymasterBalanceChanged, \"\");\n        }\n\n        return (vars.relayedCallSuccess ? RelayCallStatus.OK : RelayCallStatus.RelayedCallFailed, vars.relayedCallReturnValue);\n    }\n\n    /**\n     * @dev Reverts the transaction with return data set to the ABI encoding of the status argument (and revert reason data)\n     */\n    function revertWithStatus(RelayCallStatus status, bytes memory ret) private pure {\n        bytes memory data = abi.encode(status, ret);\n        GsnEip712Library.truncateInPlace(data);\n\n        assembly {\n            let dataSize := mload(data)\n            let dataPtr := add(data, 32)\n\n            revert(dataPtr, dataSize)\n        }\n    }\n\n    function calculateCharge(uint256 gasUsed, GsnTypes.RelayData calldata relayData) public override virtual view returns (uint256) {\n        //       relayData.baseRelayFee + (gasUsed * relayData.gasPrice * (100 + relayData.pctRelayFee)) / 100;\n        return relayData.baseRelayFee.add((gasUsed.mul(relayData.gasPrice).mul(relayData.pctRelayFee.add(100))).div(100));\n    }\n\n    function isRelayManagerStaked(address relayManager) public override view returns (bool) {\n        return stakeManager.isRelayManagerStaked(relayManager, address(this), minimumStake, minimumUnstakeDelay);\n    }\n\n    modifier penalizerOnly () {\n        require(msg.sender == penalizer, \"Not penalizer\");\n        _;\n    }\n\n    function penalize(address relayWorker, address payable beneficiary) external override penalizerOnly {\n        address relayManager = workerToManager[relayWorker];\n        // The worker must be controlled by a manager with a locked stake\n        require(relayManager != address(0), \"Unknown relay worker\");\n        require(\n            isRelayManagerStaked(relayManager),\n            \"relay manager not staked\"\n        );\n        IStakeManager.StakeInfo memory stakeInfo = stakeManager.getStakeInfo(relayManager);\n        stakeManager.penalizeRelayManager(relayManager, beneficiary, stakeInfo.stake);\n    }\n}\n",
    "sourcePath": "/Users/dror/IdeaProjects/gsn/contracts/RelayHub.sol",
    "compiler": {
        "name": "solc",
        "version": "0.6.10+commit.00c0fcaf.Emscripten.clang"
    },
    "schemaVersion": "3.1.0",
    "updatedAt": "2020-12-21T17:30:10.443Z",
    "devdoc": {
        "methods": {}
    },
    "userdoc": {
        "methods": {}
    }
}