{
    "contractName": "StakeManager",
    "abi": [
        {
            "anonymous": false,
            "inputs": [
                {
                    "indexed": true,
                    "internalType": "address",
                    "name": "relayManager",
                    "type": "address"
                },
                {
                    "indexed": true,
                    "internalType": "address",
                    "name": "relayHub",
                    "type": "address"
                }
            ],
            "name": "HubAuthorized",
            "type": "event"
        },
        {
            "anonymous": false,
            "inputs": [
                {
                    "indexed": true,
                    "internalType": "address",
                    "name": "relayManager",
                    "type": "address"
                },
                {
                    "indexed": true,
                    "internalType": "address",
                    "name": "relayHub",
                    "type": "address"
                },
                {
                    "indexed": false,
                    "internalType": "uint256",
                    "name": "removalBlock",
                    "type": "uint256"
                }
            ],
            "name": "HubUnauthorized",
            "type": "event"
        },
        {
            "anonymous": false,
            "inputs": [
                {
                    "indexed": true,
                    "internalType": "address",
                    "name": "relayManager",
                    "type": "address"
                },
                {
                    "indexed": true,
                    "internalType": "address",
                    "name": "owner",
                    "type": "address"
                },
                {
                    "indexed": false,
                    "internalType": "uint256",
                    "name": "stake",
                    "type": "uint256"
                },
                {
                    "indexed": false,
                    "internalType": "uint256",
                    "name": "unstakeDelay",
                    "type": "uint256"
                }
            ],
            "name": "StakeAdded",
            "type": "event"
        },
        {
            "anonymous": false,
            "inputs": [
                {
                    "indexed": true,
                    "internalType": "address",
                    "name": "relayManager",
                    "type": "address"
                },
                {
                    "indexed": true,
                    "internalType": "address",
                    "name": "beneficiary",
                    "type": "address"
                },
                {
                    "indexed": false,
                    "internalType": "uint256",
                    "name": "reward",
                    "type": "uint256"
                }
            ],
            "name": "StakePenalized",
            "type": "event"
        },
        {
            "anonymous": false,
            "inputs": [
                {
                    "indexed": true,
                    "internalType": "address",
                    "name": "relayManager",
                    "type": "address"
                },
                {
                    "indexed": true,
                    "internalType": "address",
                    "name": "owner",
                    "type": "address"
                },
                {
                    "indexed": false,
                    "internalType": "uint256",
                    "name": "withdrawBlock",
                    "type": "uint256"
                }
            ],
            "name": "StakeUnlocked",
            "type": "event"
        },
        {
            "anonymous": false,
            "inputs": [
                {
                    "indexed": true,
                    "internalType": "address",
                    "name": "relayManager",
                    "type": "address"
                },
                {
                    "indexed": true,
                    "internalType": "address",
                    "name": "owner",
                    "type": "address"
                },
                {
                    "indexed": false,
                    "internalType": "uint256",
                    "name": "amount",
                    "type": "uint256"
                }
            ],
            "name": "StakeWithdrawn",
            "type": "event"
        },
        {
            "inputs": [
                {
                    "internalType": "address",
                    "name": "",
                    "type": "address"
                },
                {
                    "internalType": "address",
                    "name": "",
                    "type": "address"
                }
            ],
            "name": "authorizedHubs",
            "outputs": [
                {
                    "internalType": "uint256",
                    "name": "removalBlock",
                    "type": "uint256"
                }
            ],
            "stateMutability": "view",
            "type": "function"
        },
        {
            "inputs": [
                {
                    "internalType": "address",
                    "name": "",
                    "type": "address"
                }
            ],
            "name": "stakes",
            "outputs": [
                {
                    "internalType": "uint256",
                    "name": "stake",
                    "type": "uint256"
                },
                {
                    "internalType": "uint256",
                    "name": "unstakeDelay",
                    "type": "uint256"
                },
                {
                    "internalType": "uint256",
                    "name": "withdrawBlock",
                    "type": "uint256"
                },
                {
                    "internalType": "address payable",
                    "name": "owner",
                    "type": "address"
                }
            ],
            "stateMutability": "view",
            "type": "function"
        },
        {
            "inputs": [],
            "name": "versionSM",
            "outputs": [
                {
                    "internalType": "string",
                    "name": "",
                    "type": "string"
                }
            ],
            "stateMutability": "view",
            "type": "function"
        },
        {
            "inputs": [
                {
                    "internalType": "address",
                    "name": "relayManager",
                    "type": "address"
                }
            ],
            "name": "getStakeInfo",
            "outputs": [
                {
                    "components": [
                        {
                            "internalType": "uint256",
                            "name": "stake",
                            "type": "uint256"
                        },
                        {
                            "internalType": "uint256",
                            "name": "unstakeDelay",
                            "type": "uint256"
                        },
                        {
                            "internalType": "uint256",
                            "name": "withdrawBlock",
                            "type": "uint256"
                        },
                        {
                            "internalType": "address payable",
                            "name": "owner",
                            "type": "address"
                        }
                    ],
                    "internalType": "struct IStakeManager.StakeInfo",
                    "name": "stakeInfo",
                    "type": "tuple"
                }
            ],
            "stateMutability": "view",
            "type": "function"
        },
        {
            "inputs": [
                {
                    "internalType": "address",
                    "name": "relayManager",
                    "type": "address"
                },
                {
                    "internalType": "uint256",
                    "name": "unstakeDelay",
                    "type": "uint256"
                }
            ],
            "name": "stakeForAddress",
            "outputs": [],
            "stateMutability": "payable",
            "type": "function"
        },
        {
            "inputs": [
                {
                    "internalType": "address",
                    "name": "relayManager",
                    "type": "address"
                }
            ],
            "name": "unlockStake",
            "outputs": [],
            "stateMutability": "nonpayable",
            "type": "function"
        },
        {
            "inputs": [
                {
                    "internalType": "address",
                    "name": "relayManager",
                    "type": "address"
                }
            ],
            "name": "withdrawStake",
            "outputs": [],
            "stateMutability": "nonpayable",
            "type": "function"
        },
        {
            "inputs": [
                {
                    "internalType": "address",
                    "name": "relayManager",
                    "type": "address"
                },
                {
                    "internalType": "address",
                    "name": "relayHub",
                    "type": "address"
                }
            ],
            "name": "authorizeHubByOwner",
            "outputs": [],
            "stateMutability": "nonpayable",
            "type": "function"
        },
        {
            "inputs": [
                {
                    "internalType": "address",
                    "name": "relayHub",
                    "type": "address"
                }
            ],
            "name": "authorizeHubByManager",
            "outputs": [],
            "stateMutability": "nonpayable",
            "type": "function"
        },
        {
            "inputs": [
                {
                    "internalType": "address",
                    "name": "relayManager",
                    "type": "address"
                },
                {
                    "internalType": "address",
                    "name": "relayHub",
                    "type": "address"
                }
            ],
            "name": "unauthorizeHubByOwner",
            "outputs": [],
            "stateMutability": "nonpayable",
            "type": "function"
        },
        {
            "inputs": [
                {
                    "internalType": "address",
                    "name": "relayHub",
                    "type": "address"
                }
            ],
            "name": "unauthorizeHubByManager",
            "outputs": [],
            "stateMutability": "nonpayable",
            "type": "function"
        },
        {
            "inputs": [
                {
                    "internalType": "address",
                    "name": "relayManager",
                    "type": "address"
                },
                {
                    "internalType": "address",
                    "name": "relayHub",
                    "type": "address"
                },
                {
                    "internalType": "uint256",
                    "name": "minAmount",
                    "type": "uint256"
                },
                {
                    "internalType": "uint256",
                    "name": "minUnstakeDelay",
                    "type": "uint256"
                }
            ],
            "name": "isRelayManagerStaked",
            "outputs": [
                {
                    "internalType": "bool",
                    "name": "",
                    "type": "bool"
                }
            ],
            "stateMutability": "view",
            "type": "function"
        },
        {
            "inputs": [
                {
                    "internalType": "address",
                    "name": "relayManager",
                    "type": "address"
                },
                {
                    "internalType": "address payable",
                    "name": "beneficiary",
                    "type": "address"
                },
                {
                    "internalType": "uint256",
                    "name": "amount",
                    "type": "uint256"
                }
            ],
            "name": "penalizeRelayManager",
            "outputs": [],
            "stateMutability": "nonpayable",
            "type": "function"
        }
    ],
    "bytecode": "0x60e060405260286080818152906200126b60a039805162000029916000916020909101906200003e565b503480156200003757600080fd5b50620000e3565b828054600181600116156101000203166002900490600052602060002090601f016020900481019282601f106200008157805160ff1916838001178555620000b1565b82800160010185558215620000b1579182015b82811115620000b157825182559160200191906001019062000094565b50620000bf929150620000c3565b5090565b620000e091905b80821115620000bf5760008155600101620000ca565b90565b61117880620000f36000396000f3fe6080604052600436106100c25760003560e01c80637835d2961161007f578063c345315311610059578063c345315314610211578063d48a9d431461023e578063f48f8ac71461025e578063f9bce3111461027e576100c2565b80637835d296146101a45780637aeb642a146101c4578063c23a5cea146101f1576100c2565b806309a08af4146100c757806316934fc4146100e957806347116c6e146101225780634a1ce599146101445780635d2fb768146101645780636de8dd4114610177575b600080fd5b3480156100d357600080fd5b506100e76100e2366004610d5d565b61029e565b005b3480156100f557600080fd5b50610109610104366004610d09565b610452565b6040516101199493929190611106565b60405180910390f35b34801561012e57600080fd5b50610137610483565b6040516101199190610e18565b34801561015057600080fd5b506100e761015f366004610d09565b610511565b6100e7610172366004610de2565b6105d6565b34801561018357600080fd5b50610197610192366004610d9d565b610749565b6040516101199190610e0d565b3480156101b057600080fd5b506100e76101bf366004610d25565b6107c4565b3480156101d057600080fd5b506101e46101df366004610d25565b610813565b60405161011991906110ef565b3480156101fd57600080fd5b506100e761020c366004610d09565b610830565b34801561021d57600080fd5b5061023161022c366004610d09565b610971565b60405161011991906110bb565b34801561024a57600080fd5b506100e7610259366004610d09565b6109cb565b34801561026a57600080fd5b506100e7610279366004610d25565b610a12565b34801561028a57600080fd5b506100e7610299366004610d09565b610a5b565b6001600160a01b0383166000908152600260209081526040808320338452909152902054806102e85760405162461bcd60e51b81526004016102df90610f9d565b60405180910390fd5b4381116103075760405162461bcd60e51b81526004016102df90610efa565b6001600160a01b03841660009081526001602052604090205482111561033f5760405162461bcd60e51b81526004016102df90611000565b6001600160a01b0384166000908152600160205260409020546103629083610a9e565b6001600160a01b038516600090815260016020526040812091909155610389836002610ae7565b905060006103978483610a9e565b60405190915060009083156108fc0290849083818181858288f193505050501580156103c7573d6000803e3d6000fd5b506040516001600160a01b0386169082156108fc029083906000818181858888f193505050501580156103fe573d6000803e3d6000fd5b50846001600160a01b0316866001600160a01b03167f2f2ba0bf4c9bedc2210a4da5b5811c2a4fd28e62c51bb90c3ea6fdce00808eb08360405161044291906110ef565b60405180910390a3505050505050565b600160208190526000918252604090912080549181015460028201546003909201549091906001600160a01b031684565b6000805460408051602060026001851615610100026000190190941693909304601f810184900484028201840190925281815292918301828280156105095780601f106104de57610100808354040283529160200191610509565b820191906000526020600020905b8154815290600101906020018083116104ec57829003601f168201915b505050505081565b6001600160a01b038082166000908152600160205260409020600381015490911633146105505760405162461bcd60e51b81526004016102df90611098565b6002810154156105725760405162461bcd60e51b81526004016102df90610ea2565b600181015461058890439063ffffffff610b2916565b6002820181905560405133916001600160a01b038516917f9ffc6168de1eb7f1d16200f614753cd7edce5a2186aab1c612199dd7316cd7c4916105ca916110ef565b60405180910390a35050565b6001600160a01b0382811660009081526001602052604090206003015416158061061c57506001600160a01b038281166000908152600160205260409020600301541633145b6106385760405162461bcd60e51b81526004016102df90611098565b6001600160a01b038216600090815260016020819052604090912001548110156106745760405162461bcd60e51b81526004016102df90610f31565b336001600160a01b038316141561069d5760405162461bcd60e51b81526004016102df90611054565b336000908152600160205260409020600301546001600160a01b0316156106d65760405162461bcd60e51b81526004016102df90610f66565b6001600160a01b038083166000818152600160208190526040918290206003810180546001600160a01b031916331790819055815434018083559190920186905591519316927fef7c8dfef14cbefdf829b8f066b068b677992411137321d64b3ed4538c2b3637916105ca9186906110f8565b6001600160a01b038085166000908152600160208181526040808420805493810154600280830154908552838720978b1687529690935290842054939490939287118015939287111592911591600019149084906107a45750825b80156107ad5750815b80156107b65750805b9a9950505050505050505050565b6001600160a01b038083166000908152600160205260409020600381015484921633146108035760405162461bcd60e51b81526004016102df90611098565b61080d8484610b4e565b50505050565b600260209081526000928352604080842090915290825290205481565b6001600160a01b0380821660009081526001602052604090206003810154909116331461086f5760405162461bcd60e51b81526004016102df90611098565b60008160020154116108935760405162461bcd60e51b81526004016102df90610fc9565b43816002015411156108b75760405162461bcd60e51b81526004016102df90610ecb565b80546001600160a01b038316600090815260016020819052604080832083815591820183905560028201839055600390910180546001600160a01b031916905551339183156108fc02918491818181858888f19350505050158015610920573d6000803e3d6000fd5b50336001600160a01b0316836001600160a01b03167fb7c918e0e249f999e965cafeb6c664271b3f4317d296461500e71da39f0cbda38360405161096491906110ef565b60405180910390a3505050565b610979610cd8565b506001600160a01b039081166000908152600160208181526040928390208351608081018552815481529281015491830191909152600281015492820192909252600390910154909116606082015290565b33600090815260016020526040902060038101546001600160a01b0316610a045760405162461bcd60e51b81526004016102df9061102f565b610a0e3383610b4e565b5050565b6001600160a01b03808316600090815260016020526040902060038101548492163314610a515760405162461bcd60e51b81526004016102df90611098565b61080d8484610ba5565b33600090815260016020526040902060038101546001600160a01b0316610a945760405162461bcd60e51b81526004016102df9061102f565b610a0e3383610ba5565b6000610ae083836040518060400160405280601e81526020017f536166654d6174683a207375627472616374696f6e206f766572666c6f770000815250610c75565b9392505050565b6000610ae083836040518060400160405280601a81526020017f536166654d6174683a206469766973696f6e206279207a65726f000000000000815250610ca1565b600082820183811015610ae05760405162461bcd60e51b81526004016102df90610e6b565b6001600160a01b038083166000818152600260209081526040808320948616808452949091528082206000199055517fe292c4f6e9f34c975f4958cd5650a8111352feae914a67b064079571054210219190a35050565b6001600160a01b038083166000908152600260209081526040808320938516835292905220805460001914610bec5760405162461bcd60e51b81526004016102df90610f9d565b6001600160a01b038316600090815260016020819052604082200154610c1990439063ffffffff610b2916565b9050808260000181905550826001600160a01b0316846001600160a01b03167f8d941c9b73ba7e59671a59eed85054004624684182b0e4bdb56c35937bac65a683604051610c6791906110ef565b60405180910390a350505050565b60008184841115610c995760405162461bcd60e51b81526004016102df9190610e18565b505050900390565b60008183610cc25760405162461bcd60e51b81526004016102df9190610e18565b506000838581610cce57fe5b0495945050505050565b604051806080016040528060008152602001600081526020016000815260200160006001600160a01b031681525090565b600060208284031215610d1a578081fd5b8135610ae08161112a565b60008060408385031215610d37578081fd5b8235610d428161112a565b91506020830135610d528161112a565b809150509250929050565b600080600060608486031215610d71578081fd5b8335610d7c8161112a565b92506020840135610d8c8161112a565b929592945050506040919091013590565b60008060008060808587031215610db2578081fd5b8435610dbd8161112a565b93506020850135610dcd8161112a565b93969395505050506040820135916060013590565b60008060408385031215610df4578182fd5b8235610dff8161112a565b946020939093013593505050565b901515815260200190565b6000602080835283518082850152825b81811015610e4457858101830151858201604001528201610e28565b81811115610e555783604083870101525b50601f01601f1916929092016040019392505050565b6020808252601b908201527f536166654d6174683a206164646974696f6e206f766572666c6f770000000000604082015260600190565b6020808252600f908201526e616c72656164792070656e64696e6760881b604082015260600190565b6020808252601590820152745769746864726177616c206973206e6f742064756560581b604082015260600190565b60208082526019908201527f68756220617574686f72697a6174696f6e206578706972656400000000000000604082015260600190565b6020808252818101527f756e7374616b6544656c61792063616e6e6f7420626520646563726561736564604082015260600190565b6020808252601f908201527f73656e64657220697320612072656c61794d616e6167657220697473656c6600604082015260600190565b6020808252601290820152711a1d58881b9bdd08185d5d1a1bdc9a5e995960721b604082015260600190565b6020808252601b908201527f5769746864726177616c206973206e6f74207363686564756c65640000000000604082015260600190565b60208082526015908201527470656e616c74792065786365656473207374616b6560581b604082015260600190565b6020808252600b908201526a3737ba1036b0b730b3b2b960a91b604082015260600190565b60208082526024908201527f72656c61794d616e616765722063616e6e6f74207374616b6520666f7220697460408201526339b2b63360e11b606082015260800190565b6020808252600990820152683737ba1037bbb732b960b91b604082015260600190565b8151815260208083015190820152604080830151908201526060918201516001600160a01b03169181019190915260800190565b90815260200190565b918252602082015260400190565b938452602084019290925260408301526001600160a01b0316606082015260800190565b6001600160a01b038116811461113f57600080fd5b5056fea2646970667358221220636f6cc0f01d584912418a4056bc426d242cae3ed9183127f0fd663ccf1728f964736f6c634300060a0033322e302e302b6f70656e67736e2e7374616b656d616e616765722e697374616b656d616e61676572",
    "immutableReferences": {},
    "source": "// SPDX-License-Identifier:MIT\npragma solidity ^0.6.2;\npragma experimental ABIEncoderV2;\n\nimport \"@openzeppelin/contracts/math/SafeMath.sol\";\n\nimport \"./interfaces/IStakeManager.sol\";\n\ncontract StakeManager is IStakeManager {\n    using SafeMath for uint256;\n\n    string public override versionSM = \"2.0.0+opengsn.stakemanager.istakemanager\";\n\n    /// maps relay managers to their stakes\n    mapping(address => StakeInfo) public stakes;\n    function getStakeInfo(address relayManager) external override view returns (StakeInfo memory stakeInfo) {\n        return stakes[relayManager];\n    }\n\n    /// maps relay managers to a map of addressed of their authorized hubs to the information on that hub\n    mapping(address => mapping(address => RelayHubInfo)) public authorizedHubs;\n\n    /// Put a stake for a relayManager and set its unstake delay.\n    /// If the entry does not exist, it is created, and the caller of this function becomes its owner.\n    /// If the entry already exists, only the owner can call this function.\n    /// @param relayManager - address that represents a stake entry and controls relay registrations on relay hubs\n    /// @param unstakeDelay - number of blocks to elapse before the owner can retrieve the stake after calling 'unlock'\n    function stakeForAddress(address relayManager, uint256 unstakeDelay) external override payable {\n        require(stakes[relayManager].owner == address(0) || stakes[relayManager].owner == msg.sender, \"not owner\");\n        require(unstakeDelay >= stakes[relayManager].unstakeDelay, \"unstakeDelay cannot be decreased\");\n        require(msg.sender != relayManager, \"relayManager cannot stake for itself\");\n        require(stakes[msg.sender].owner == address(0), \"sender is a relayManager itself\");\n        stakes[relayManager].owner = msg.sender;\n        stakes[relayManager].stake += msg.value;\n        stakes[relayManager].unstakeDelay = unstakeDelay;\n        emit StakeAdded(relayManager, stakes[relayManager].owner, stakes[relayManager].stake, stakes[relayManager].unstakeDelay);\n    }\n\n    function unlockStake(address relayManager) external override {\n        StakeInfo storage info = stakes[relayManager];\n        require(info.owner == msg.sender, \"not owner\");\n        require(info.withdrawBlock == 0, \"already pending\");\n        info.withdrawBlock = block.number.add(info.unstakeDelay);\n        emit StakeUnlocked(relayManager, msg.sender, info.withdrawBlock);\n    }\n\n    function withdrawStake(address relayManager) external override {\n        StakeInfo storage info = stakes[relayManager];\n        require(info.owner == msg.sender, \"not owner\");\n        require(info.withdrawBlock > 0, \"Withdrawal is not scheduled\");\n        require(info.withdrawBlock <= block.number, \"Withdrawal is not due\");\n        uint256 amount = info.stake;\n        delete stakes[relayManager];\n        msg.sender.transfer(amount);\n        emit StakeWithdrawn(relayManager, msg.sender, amount);\n    }\n\n    modifier ownerOnly (address relayManager) {\n        StakeInfo storage info = stakes[relayManager];\n        require(info.owner == msg.sender, \"not owner\");\n        _;\n    }\n\n    modifier managerOnly () {\n        StakeInfo storage info = stakes[msg.sender];\n        require(info.owner != address(0), \"not manager\");\n        _;\n    }\n\n    function authorizeHubByOwner(address relayManager, address relayHub) external ownerOnly(relayManager) override {\n        _authorizeHub(relayManager, relayHub);\n    }\n\n    function authorizeHubByManager(address relayHub) external managerOnly override {\n        _authorizeHub(msg.sender, relayHub);\n    }\n\n    function _authorizeHub(address relayManager, address relayHub) internal {\n        authorizedHubs[relayManager][relayHub].removalBlock = uint(-1);\n        emit HubAuthorized(relayManager, relayHub);\n    }\n\n    function unauthorizeHubByOwner(address relayManager, address relayHub) external override ownerOnly(relayManager) {\n        _unauthorizeHub(relayManager, relayHub);\n    }\n\n    function unauthorizeHubByManager(address relayHub) external override managerOnly {\n        _unauthorizeHub(msg.sender, relayHub);\n    }\n\n    function _unauthorizeHub(address relayManager, address relayHub) internal {\n        RelayHubInfo storage hubInfo = authorizedHubs[relayManager][relayHub];\n        require(hubInfo.removalBlock == uint(-1), \"hub not authorized\");\n        uint256 removalBlock = block.number.add(stakes[relayManager].unstakeDelay);\n        hubInfo.removalBlock = removalBlock;\n        emit HubUnauthorized(relayManager, relayHub, removalBlock);\n    }\n\n    function isRelayManagerStaked(address relayManager, address relayHub, uint256 minAmount, uint256 minUnstakeDelay)\n    external\n    override\n    view\n    returns (bool) {\n        StakeInfo storage info = stakes[relayManager];\n        bool isAmountSufficient = info.stake >= minAmount;\n        bool isDelaySufficient = info.unstakeDelay >= minUnstakeDelay;\n        bool isStakeLocked = info.withdrawBlock == 0;\n        bool isHubAuthorized = authorizedHubs[relayManager][relayHub].removalBlock == uint(-1);\n        return\n        isAmountSufficient &&\n        isDelaySufficient &&\n        isStakeLocked &&\n        isHubAuthorized;\n    }\n\n    /// Slash the stake of the relay relayManager. In order to prevent stake kidnapping, burns half of stake on the way.\n    /// @param relayManager - entry to penalize\n    /// @param beneficiary - address that receives half of the penalty amount\n    /// @param amount - amount to withdraw from stake\n    function penalizeRelayManager(address relayManager, address payable beneficiary, uint256 amount) external override {\n        uint256 removalBlock =  authorizedHubs[relayManager][msg.sender].removalBlock;\n        require(removalBlock != 0, \"hub not authorized\");\n        require(removalBlock > block.number, \"hub authorization expired\");\n\n        // Half of the stake will be burned (sent to address 0)\n        require(stakes[relayManager].stake >= amount, \"penalty exceeds stake\");\n        stakes[relayManager].stake = SafeMath.sub(stakes[relayManager].stake, amount);\n\n        uint256 toBurn = SafeMath.div(amount, 2);\n        uint256 reward = SafeMath.sub(amount, toBurn);\n\n        // Ether is burned and transferred\n        address(0).transfer(toBurn);\n        beneficiary.transfer(reward);\n        emit StakePenalized(relayManager, beneficiary, reward);\n    }\n}\n",
    "sourcePath": "/Users/dror/IdeaProjects/gsn/contracts/StakeManager.sol",
    "compiler": {
        "name": "solc",
        "version": "0.6.10+commit.00c0fcaf.Emscripten.clang"
    },
    "schemaVersion": "3.1.0",
    "updatedAt": "2020-12-21T17:30:10.459Z",
    "devdoc": {
        "methods": {
            "penalizeRelayManager(address,address,uint256)": {
                "params": {
                    "amount": "- amount to withdraw from stake",
                    "beneficiary": "- address that receives half of the penalty amount",
                    "relayManager": "- entry to penalize"
                }
            },
            "stakeForAddress(address,uint256)": {
                "params": {
                    "relayManager": "- address that represents a stake entry and controls relay registrations on relay hubs",
                    "unstakeDelay": "- number of blocks to elapse before the owner can retrieve the stake after calling 'unlock'"
                }
            }
        }
    },
    "userdoc": {
        "methods": {
            "authorizedHubs(address,address)": {
                "notice": "maps relay managers to a map of addressed of their authorized hubs to the information on that hub"
            },
            "penalizeRelayManager(address,address,uint256)": {
                "notice": "Slash the stake of the relay relayManager. In order to prevent stake kidnapping, burns half of stake on the way."
            },
            "stakeForAddress(address,uint256)": {
                "notice": "Put a stake for a relayManager and set its unstake delay. If the entry does not exist, it is created, and the caller of this function becomes its owner. If the entry already exists, only the owner can call this function."
            },
            "stakes(address)": {
                "notice": "maps relay managers to their stakes"
            }
        }
    }
}