{
    "contractName": "TestPaymasterEverythingAccepted",
    "abi": [
        {
            "anonymous": false,
            "inputs": [
                {
                    "indexed": true,
                    "internalType": "address",
                    "name": "previousOwner",
                    "type": "address"
                },
                {
                    "indexed": true,
                    "internalType": "address",
                    "name": "newOwner",
                    "type": "address"
                }
            ],
            "name": "OwnershipTransferred",
            "type": "event"
        },
        {
            "anonymous": false,
            "inputs": [
                {
                    "indexed": false,
                    "internalType": "bool",
                    "name": "success",
                    "type": "bool"
                },
                {
                    "indexed": false,
                    "internalType": "uint256",
                    "name": "actualCharge",
                    "type": "uint256"
                }
            ],
            "name": "SampleRecipientPostCall",
            "type": "event"
        },
        {
            "anonymous": false,
            "inputs": [],
            "name": "SampleRecipientPreCall",
            "type": "event"
        },
        {
            "inputs": [],
            "name": "FORWARDER_HUB_OVERHEAD",
            "outputs": [
                {
                    "internalType": "uint256",
                    "name": "",
                    "type": "uint256"
                }
            ],
            "stateMutability": "view",
            "type": "function"
        },
        {
            "inputs": [],
            "name": "PAYMASTER_ACCEPTANCE_BUDGET",
            "outputs": [
                {
                    "internalType": "uint256",
                    "name": "",
                    "type": "uint256"
                }
            ],
            "stateMutability": "view",
            "type": "function"
        },
        {
            "inputs": [],
            "name": "POST_RELAYED_CALL_GAS_LIMIT",
            "outputs": [
                {
                    "internalType": "uint256",
                    "name": "",
                    "type": "uint256"
                }
            ],
            "stateMutability": "view",
            "type": "function"
        },
        {
            "inputs": [],
            "name": "PRE_RELAYED_CALL_GAS_LIMIT",
            "outputs": [
                {
                    "internalType": "uint256",
                    "name": "",
                    "type": "uint256"
                }
            ],
            "stateMutability": "view",
            "type": "function"
        },
        {
            "inputs": [
                {
                    "components": [
                        {
                            "components": [
                                {
                                    "internalType": "address",
                                    "name": "from",
                                    "type": "address"
                                },
                                {
                                    "internalType": "address",
                                    "name": "to",
                                    "type": "address"
                                },
                                {
                                    "internalType": "uint256",
                                    "name": "value",
                                    "type": "uint256"
                                },
                                {
                                    "internalType": "uint256",
                                    "name": "gas",
                                    "type": "uint256"
                                },
                                {
                                    "internalType": "uint256",
                                    "name": "nonce",
                                    "type": "uint256"
                                },
                                {
                                    "internalType": "bytes",
                                    "name": "data",
                                    "type": "bytes"
                                }
                            ],
                            "internalType": "struct IForwarder.ForwardRequest",
                            "name": "request",
                            "type": "tuple"
                        },
                        {
                            "components": [
                                {
                                    "internalType": "uint256",
                                    "name": "gasPrice",
                                    "type": "uint256"
                                },
                                {
                                    "internalType": "uint256",
                                    "name": "pctRelayFee",
                                    "type": "uint256"
                                },
                                {
                                    "internalType": "uint256",
                                    "name": "baseRelayFee",
                                    "type": "uint256"
                                },
                                {
                                    "internalType": "address",
                                    "name": "relayWorker",
                                    "type": "address"
                                },
                                {
                                    "internalType": "address",
                                    "name": "paymaster",
                                    "type": "address"
                                },
                                {
                                    "internalType": "bytes",
                                    "name": "paymasterData",
                                    "type": "bytes"
                                },
                                {
                                    "internalType": "uint256",
                                    "name": "clientId",
                                    "type": "uint256"
                                },
                                {
                                    "internalType": "address",
                                    "name": "forwarder",
                                    "type": "address"
                                }
                            ],
                            "internalType": "struct GsnTypes.RelayData",
                            "name": "relayData",
                            "type": "tuple"
                        }
                    ],
                    "internalType": "struct GsnTypes.RelayRequest",
                    "name": "relayRequest",
                    "type": "tuple"
                }
            ],
            "name": "_verifyForwarder",
            "outputs": [],
            "stateMutability": "view",
            "type": "function"
        },
        {
            "inputs": [],
            "name": "getGasLimits",
            "outputs": [
                {
                    "components": [
                        {
                            "internalType": "uint256",
                            "name": "acceptanceBudget",
                            "type": "uint256"
                        },
                        {
                            "internalType": "uint256",
                            "name": "preRelayedCallGasLimit",
                            "type": "uint256"
                        },
                        {
                            "internalType": "uint256",
                            "name": "postRelayedCallGasLimit",
                            "type": "uint256"
                        }
                    ],
                    "internalType": "struct IPaymaster.GasLimits",
                    "name": "limits",
                    "type": "tuple"
                }
            ],
            "stateMutability": "view",
            "type": "function"
        },
        {
            "inputs": [],
            "name": "getHubAddr",
            "outputs": [
                {
                    "internalType": "address",
                    "name": "",
                    "type": "address"
                }
            ],
            "stateMutability": "view",
            "type": "function"
        },
        {
            "inputs": [],
            "name": "getRelayHubDeposit",
            "outputs": [
                {
                    "internalType": "uint256",
                    "name": "",
                    "type": "uint256"
                }
            ],
            "stateMutability": "view",
            "type": "function"
        },
        {
            "inputs": [],
            "name": "owner",
            "outputs": [
                {
                    "internalType": "address",
                    "name": "",
                    "type": "address"
                }
            ],
            "stateMutability": "view",
            "type": "function"
        },
        {
            "inputs": [],
            "name": "renounceOwnership",
            "outputs": [],
            "stateMutability": "nonpayable",
            "type": "function"
        },
        {
            "inputs": [
                {
                    "internalType": "contract IRelayHub",
                    "name": "hub",
                    "type": "address"
                }
            ],
            "name": "setRelayHub",
            "outputs": [],
            "stateMutability": "nonpayable",
            "type": "function"
        },
        {
            "inputs": [
                {
                    "internalType": "contract IForwarder",
                    "name": "forwarder",
                    "type": "address"
                }
            ],
            "name": "setTrustedForwarder",
            "outputs": [],
            "stateMutability": "nonpayable",
            "type": "function"
        },
        {
            "inputs": [
                {
                    "internalType": "address",
                    "name": "newOwner",
                    "type": "address"
                }
            ],
            "name": "transferOwnership",
            "outputs": [],
            "stateMutability": "nonpayable",
            "type": "function"
        },
        {
            "inputs": [],
            "name": "trustedForwarder",
            "outputs": [
                {
                    "internalType": "contract IForwarder",
                    "name": "",
                    "type": "address"
                }
            ],
            "stateMutability": "view",
            "type": "function"
        },
        {
            "inputs": [
                {
                    "internalType": "uint256",
                    "name": "amount",
                    "type": "uint256"
                },
                {
                    "internalType": "address payable",
                    "name": "target",
                    "type": "address"
                }
            ],
            "name": "withdrawRelayHubDepositTo",
            "outputs": [],
            "stateMutability": "nonpayable",
            "type": "function"
        },
        {
            "stateMutability": "payable",
            "type": "receive"
        },
        {
            "inputs": [],
            "name": "versionPaymaster",
            "outputs": [
                {
                    "internalType": "string",
                    "name": "",
                    "type": "string"
                }
            ],
            "stateMutability": "view",
            "type": "function"
        },
        {
            "inputs": [
                {
                    "components": [
                        {
                            "components": [
                                {
                                    "internalType": "address",
                                    "name": "from",
                                    "type": "address"
                                },
                                {
                                    "internalType": "address",
                                    "name": "to",
                                    "type": "address"
                                },
                                {
                                    "internalType": "uint256",
                                    "name": "value",
                                    "type": "uint256"
                                },
                                {
                                    "internalType": "uint256",
                                    "name": "gas",
                                    "type": "uint256"
                                },
                                {
                                    "internalType": "uint256",
                                    "name": "nonce",
                                    "type": "uint256"
                                },
                                {
                                    "internalType": "bytes",
                                    "name": "data",
                                    "type": "bytes"
                                }
                            ],
                            "internalType": "struct IForwarder.ForwardRequest",
                            "name": "request",
                            "type": "tuple"
                        },
                        {
                            "components": [
                                {
                                    "internalType": "uint256",
                                    "name": "gasPrice",
                                    "type": "uint256"
                                },
                                {
                                    "internalType": "uint256",
                                    "name": "pctRelayFee",
                                    "type": "uint256"
                                },
                                {
                                    "internalType": "uint256",
                                    "name": "baseRelayFee",
                                    "type": "uint256"
                                },
                                {
                                    "internalType": "address",
                                    "name": "relayWorker",
                                    "type": "address"
                                },
                                {
                                    "internalType": "address",
                                    "name": "paymaster",
                                    "type": "address"
                                },
                                {
                                    "internalType": "bytes",
                                    "name": "paymasterData",
                                    "type": "bytes"
                                },
                                {
                                    "internalType": "uint256",
                                    "name": "clientId",
                                    "type": "uint256"
                                },
                                {
                                    "internalType": "address",
                                    "name": "forwarder",
                                    "type": "address"
                                }
                            ],
                            "internalType": "struct GsnTypes.RelayData",
                            "name": "relayData",
                            "type": "tuple"
                        }
                    ],
                    "internalType": "struct GsnTypes.RelayRequest",
                    "name": "relayRequest",
                    "type": "tuple"
                },
                {
                    "internalType": "bytes",
                    "name": "signature",
                    "type": "bytes"
                },
                {
                    "internalType": "bytes",
                    "name": "approvalData",
                    "type": "bytes"
                },
                {
                    "internalType": "uint256",
                    "name": "maxPossibleGas",
                    "type": "uint256"
                }
            ],
            "name": "preRelayedCall",
            "outputs": [
                {
                    "internalType": "bytes",
                    "name": "",
                    "type": "bytes"
                },
                {
                    "internalType": "bool",
                    "name": "",
                    "type": "bool"
                }
            ],
            "stateMutability": "nonpayable",
            "type": "function"
        },
        {
            "inputs": [
                {
                    "internalType": "bytes",
                    "name": "context",
                    "type": "bytes"
                },
                {
                    "internalType": "bool",
                    "name": "success",
                    "type": "bool"
                },
                {
                    "internalType": "uint256",
                    "name": "gasUseWithoutPost",
                    "type": "uint256"
                },
                {
                    "components": [
                        {
                            "internalType": "uint256",
                            "name": "gasPrice",
                            "type": "uint256"
                        },
                        {
                            "internalType": "uint256",
                            "name": "pctRelayFee",
                            "type": "uint256"
                        },
                        {
                            "internalType": "uint256",
                            "name": "baseRelayFee",
                            "type": "uint256"
                        },
                        {
                            "internalType": "address",
                            "name": "relayWorker",
                            "type": "address"
                        },
                        {
                            "internalType": "address",
                            "name": "paymaster",
                            "type": "address"
                        },
                        {
                            "internalType": "bytes",
                            "name": "paymasterData",
                            "type": "bytes"
                        },
                        {
                            "internalType": "uint256",
                            "name": "clientId",
                            "type": "uint256"
                        },
                        {
                            "internalType": "address",
                            "name": "forwarder",
                            "type": "address"
                        }
                    ],
                    "internalType": "struct GsnTypes.RelayData",
                    "name": "relayData",
                    "type": "tuple"
                }
            ],
            "name": "postRelayedCall",
            "outputs": [],
            "stateMutability": "nonpayable",
            "type": "function"
        },
        {
            "inputs": [],
            "name": "deposit",
            "outputs": [],
            "stateMutability": "payable",
            "type": "function"
        },
        {
            "inputs": [
                {
                    "internalType": "address payable",
                    "name": "destination",
                    "type": "address"
                }
            ],
            "name": "withdrawAll",
            "outputs": [],
            "stateMutability": "nonpayable",
            "type": "function"
        }
    ],
    "bytecode": "0x608060405234801561001057600080fd5b5060006100246001600160e01b0361007316565b600080546001600160a01b0319166001600160a01b0383169081178255604051929350917f8be0079c531659141344cd1fd0a4f28419497f9722a3daafe3b4186f6b6457e0908290a350610077565b3390565b6110d8806100866000396000f3fe6080604052600436106101235760003560e01c80639ea09211116100a0578063df463a6611610064578063df463a6614610368578063e5c124461461037d578063f2fde38b146103ab578063f9c002f7146103cb578063fa09e630146103e0576101bf565b80639ea09211146102f6578063b90b41cf14610316578063bbdaa3c91461032b578063d0e30db014610340578063da74222814610348576101bf565b80637bb05264116100e75780637bb052641461026a5780637da0a8771461028a5780638da5cb5b1461029f5780638e9483b0146102b4578063921276ea146102d4576101bf565b80632afe31c1146101c45780632d14c4b7146101ef5780635ea54eee14610211578063715018a61461023357806374e861d614610248576101bf565b366101bf576001546001600160a01b03166101595760405162461bcd60e51b815260040161015090610e9d565b60405180910390fd5b60015460405163aa67c91960e01b81526001600160a01b039091169063aa67c91990349061018b903090600401610dc5565b6000604051808303818588803b1580156101a457600080fd5b505af11580156101b8573d6000803e3d6000fd5b5050505050005b600080fd5b3480156101d057600080fd5b506101d9610400565b6040516101e69190610fe4565b60405180910390f35b3480156101fb57600080fd5b5061020f61020a366004610d4e565b610486565b005b34801561021d57600080fd5b50610226610521565b6040516101e69190610fc3565b34801561023f57600080fd5b5061020f610551565b34801561025457600080fd5b5061025d6105d0565b6040516101e69190610dc5565b34801561027657600080fd5b5061020f610285366004610b95565b6105df565b34801561029657600080fd5b5061025d610636565b3480156102ab57600080fd5b5061025d610645565b3480156102c057600080fd5b5061020f6102cf366004610bd4565b610654565b3480156102e057600080fd5b506102e9610694565b6040516101e69190610e0d565b34801561030257600080fd5b5061020f610311366004610c62565b6106b4565b34801561032257600080fd5b506101d961070c565b34801561033757600080fd5b506101d9610712565b61020f610719565b34801561035457600080fd5b5061020f610363366004610b95565b6107a7565b34801561037457600080fd5b506101d96107fe565b34801561038957600080fd5b5061039d610398366004610c9d565b610805565b6040516101e6929190610de9565b3480156103b757600080fd5b5061020f6103c6366004610b95565b61086f565b3480156103d757600080fd5b506101d9610925565b3480156103ec57600080fd5b5061020f6103fb366004610b95565b61092c565b6001546040516370a0823160e01b81526000916001600160a01b0316906370a0823190610431903090600401610dc5565b60206040518083038186803b15801561044957600080fd5b505afa15801561045d573d6000803e3d6000fd5b505050506040513d601f19601f820116820180604052508101906104819190610d36565b905090565b61048e6109bd565b6000546001600160a01b039081169116146104bb5760405162461bcd60e51b815260040161015090610f8e565b600154604051627b8a6760e11b81526001600160a01b039091169062f714ce906104eb9085908590600401610fed565b600060405180830381600087803b15801561050557600080fd5b505af1158015610519573d6000803e3d6000fd5b505050505050565b610529610b16565b5060408051606081018252620249f08152620186a060208201526201adb09181019190915290565b6105596109bd565b6000546001600160a01b039081169116146105865760405162461bcd60e51b815260040161015090610f8e565b600080546040516001600160a01b03909116907f8be0079c531659141344cd1fd0a4f28419497f9722a3daafe3b4186f6b6457e0908390a3600080546001600160a01b0319169055565b6001546001600160a01b031690565b6105e76109bd565b6000546001600160a01b039081169116146106145760405162461bcd60e51b815260040161015090610f8e565b600180546001600160a01b0319166001600160a01b0392909216919091179055565b6002546001600160a01b031681565b6000546001600160a01b031690565b7f8c7dc6f54401600ae78b31aec3dec125cfa5b7bcbf4ff3cbc5bfd818ba082b498383604051610685929190610dd9565b60405180910390a15050505050565b606060405180606001604052806021815260200161108260219139905090565b6106c16020820182611019565b6106d39061010081019060e001610b95565b6002546001600160a01b039081169116146107005760405162461bcd60e51b815260040161015090610ed4565b610709816109c1565b50565b61c35081565b6201adb081565b6001546001600160a01b03166107415760405162461bcd60e51b815260040161015090610e9d565b60015460405163aa67c91960e01b81526001600160a01b039091169063aa67c919903490610773903090600401610dc5565b6000604051808303818588803b15801561078c57600080fd5b505af11580156107a0573d6000803e3d6000fd5b5050505050565b6107af6109bd565b6000546001600160a01b039081169116146107dc5760405162461bcd60e51b815260040161015090610f8e565b600280546001600160a01b0319166001600160a01b0392909216919091179055565b620249f081565b60606000610812886106b4565b6040517fa8c41f12bf21d07540a32ccb08bbc931778b2943d4747381c9466041b89d7d7a90600090a1505060408051808201909152600e81526d6e6f20726576657274206865726560901b60208201526000965096945050505050565b6108776109bd565b6000546001600160a01b039081169116146108a45760405162461bcd60e51b815260040161015090610f8e565b6001600160a01b0381166108ca5760405162461bcd60e51b815260040161015090610e57565b600080546040516001600160a01b03808516939216917f8be0079c531659141344cd1fd0a4f28419497f9722a3daafe3b4186f6b6457e091a3600080546001600160a01b0319166001600160a01b0392909216919091179055565b620186a081565b6001546040516370a0823160e01b81526000916001600160a01b0316906370a082319061095d903090600401610dc5565b60206040518083038186803b15801561097557600080fd5b505afa158015610989573d6000803e3d6000fd5b505050506040513d601f19601f820116820180604052508101906109ad9190610d36565b90506109b98183610486565b5050565b3390565b600060606109cf8380611004565b6109e0906040810190602001610b95565b6001600160a01b031663572b6c0560e01b6109fe6020860186611019565b610a109061010081019060e001610b95565b604051602401610a209190610dc5565b60408051601f198184030181529181526020820180516001600160e01b03166001600160e01b0319909416939093179092529051610a5e9190610da9565b600060405180830381855afa9150503d8060008114610a99576040519150601f19603f3d011682016040523d82523d6000602084013e610a9e565b606091505b509150915081610ac05760405162461bcd60e51b815260040161015090610f57565b8051602014610ae15760405162461bcd60e51b815260040161015090610f0b565b80806020019051810190610af59190610bb8565b610b115760405162461bcd60e51b815260040161015090610e20565b505050565b60405180606001604052806000815260200160008152602001600081525090565b60008083601f840112610b48578182fd5b50813567ffffffffffffffff811115610b5f578182fd5b602083019150836020828501011115610b7757600080fd5b9250929050565b600060408284031215610b8f578081fd5b50919050565b600060208284031215610ba6578081fd5b8135610bb18161105e565b9392505050565b600060208284031215610bc9578081fd5b8151610bb181611073565b600080600080600060808688031215610beb578081fd5b853567ffffffffffffffff80821115610c02578283fd5b610c0e89838a01610b37565b909750955060208801359150610c2382611073565b9093506040870135925060608701359080821115610c3f578283fd5b50808701610100818a031215610c53578283fd5b80925050509295509295909350565b600060208284031215610c73578081fd5b813567ffffffffffffffff811115610c89578182fd5b610c9584828501610b7e565b949350505050565b60008060008060008060808789031215610cb5578081fd5b863567ffffffffffffffff80821115610ccc578283fd5b610cd88a838b01610b7e565b97506020890135915080821115610ced578283fd5b610cf98a838b01610b37565b90975095506040890135915080821115610d11578283fd5b50610d1e89828a01610b37565b979a9699509497949695606090950135949350505050565b600060208284031215610d47578081fd5b5051919050565b60008060408385031215610d60578182fd5b823591506020830135610d728161105e565b809150509250929050565b60008151808452610d9581602086016020860161102e565b601f01601f19169290920160200192915050565b60008251610dbb81846020870161102e565b9190910192915050565b6001600160a01b0391909116815260200190565b9115158252602082015260400190565b600060408252610dfc6040830185610d7d565b905082151560208301529392505050565b600060208252610bb16020830184610d7d565b6020808252601f908201527f696e76616c696420666f7277617264657220666f7220726563697069656e7400604082015260600190565b60208082526026908201527f4f776e61626c653a206e6577206f776e657220697320746865207a65726f206160408201526564647265737360d01b606082015260800190565b60208082526019908201527f72656c6179206875622061646472657373206e6f742073657400000000000000604082015260600190565b60208082526018908201527f466f72776172646572206973206e6f7420747275737465640000000000000000604082015260600190565b6020808252602c908201527f697354727573746564466f727761726465722072657475726e656420696e766160408201526b6c696420726573706f6e736560a01b606082015260800190565b6020808252601b908201527f697354727573746564466f727761726465722072657665727465640000000000604082015260600190565b6020808252818101527f4f776e61626c653a2063616c6c6572206973206e6f7420746865206f776e6572604082015260600190565b81518152602080830151908201526040918201519181019190915260600190565b90815260200190565b9182526001600160a01b0316602082015260400190565b6000823560be19833603018112610dbb578182fd5b6000823560fe19833603018112610dbb578182fd5b60005b83811015611049578181015183820152602001611031565b83811115611058576000848401525b50505050565b6001600160a01b038116811461070957600080fd5b801515811461070957600080fdfe322e302e302b6f70656e67736e2e746573742d7065612e697061796d6173746572a2646970667358221220751d8c2a0252b97257ab77887cd7828d247a4261f18d6ff5f91945e84b2332fa64736f6c634300060a0033",
    "immutableReferences": {},
    "source": "// SPDX-License-Identifier:MIT\npragma solidity ^0.6.2;\npragma experimental ABIEncoderV2;\n\nimport \"../forwarder/IForwarder.sol\";\nimport \"../BasePaymaster.sol\";\n\ncontract TestPaymasterEverythingAccepted is BasePaymaster {\n\n    function versionPaymaster() external view override virtual returns (string memory){\n        return \"2.0.0+opengsn.test-pea.ipaymaster\";\n    }\n\n    event SampleRecipientPreCall();\n    event SampleRecipientPostCall(bool success, uint actualCharge);\n\n    function preRelayedCall(\n        GsnTypes.RelayRequest calldata relayRequest,\n        bytes calldata signature,\n        bytes calldata approvalData,\n        uint256 maxPossibleGas\n    )\n    external\n    override\n    virtual\n    returns (bytes memory, bool) {\n        (signature);\n        _verifyForwarder(relayRequest);\n        (approvalData, maxPossibleGas);\n        emit SampleRecipientPreCall();\n        return (\"no revert here\",false);\n    }\n\n    function postRelayedCall(\n        bytes calldata context,\n        bool success,\n        uint256 gasUseWithoutPost,\n        GsnTypes.RelayData calldata relayData\n    )\n    external\n    override\n    virtual\n    {\n        (context, gasUseWithoutPost, relayData);\n        emit SampleRecipientPostCall(success, gasUseWithoutPost);\n    }\n\n    function deposit() public payable {\n        require(address(relayHub) != address(0), \"relay hub address not set\");\n        relayHub.depositFor{value:msg.value}(address(this));\n    }\n\n    function withdrawAll(address payable destination) public {\n        uint256 amount = relayHub.balanceOf(address(this));\n        withdrawRelayHubDepositTo(amount, destination);\n    }\n}\n",
    "sourcePath": "/Users/dror/IdeaProjects/gsn/contracts/test/TestPaymasterEverythingAccepted.sol",
    "compiler": {
        "name": "solc",
        "version": "0.6.10+commit.00c0fcaf.Emscripten.clang"
    },
    "schemaVersion": "3.1.0",
    "updatedAt": "2020-12-21T17:30:10.492Z",
    "devdoc": {
        "methods": {
            "owner()": {
                "details": "Returns the address of the current owner."
            },
            "renounceOwnership()": {
                "details": "Leaves the contract without owner. It will not be possible to call `onlyOwner` functions anymore. Can only be called by the current owner. NOTE: Renouncing ownership will leave the contract without an owner, thereby removing any functionality that is only available to the owner."
            },
            "transferOwnership(address)": {
                "details": "Transfers ownership of the contract to a new account (`newOwner`). Can only be called by the current owner."
            }
        }
    },
    "userdoc": {
        "methods": {
            "getRelayHubDeposit()": {
                "notice": "check current deposit on relay hub."
            },
            "withdrawRelayHubDepositTo(uint256,address)": {
                "notice": "withdraw deposit from relayHub"
            }
        }
    }
}