{
    "contractName": "VersionRegistry",
    "abi": [
        {
            "anonymous": false,
            "inputs": [
                {
                    "indexed": true,
                    "internalType": "address",
                    "name": "previousOwner",
                    "type": "address"
                },
                {
                    "indexed": true,
                    "internalType": "address",
                    "name": "newOwner",
                    "type": "address"
                }
            ],
            "name": "OwnershipTransferred",
            "type": "event"
        },
        {
            "anonymous": false,
            "inputs": [
                {
                    "indexed": true,
                    "internalType": "bytes32",
                    "name": "id",
                    "type": "bytes32"
                },
                {
                    "indexed": false,
                    "internalType": "bytes32",
                    "name": "version",
                    "type": "bytes32"
                },
                {
                    "indexed": false,
                    "internalType": "string",
                    "name": "value",
                    "type": "string"
                },
                {
                    "indexed": false,
                    "internalType": "uint256",
                    "name": "time",
                    "type": "uint256"
                }
            ],
            "name": "VersionAdded",
            "type": "event"
        },
        {
            "anonymous": false,
            "inputs": [
                {
                    "indexed": true,
                    "internalType": "bytes32",
                    "name": "id",
                    "type": "bytes32"
                },
                {
                    "indexed": false,
                    "internalType": "bytes32",
                    "name": "version",
                    "type": "bytes32"
                },
                {
                    "indexed": false,
                    "internalType": "string",
                    "name": "reason",
                    "type": "string"
                }
            ],
            "name": "VersionCanceled",
            "type": "event"
        },
        {
            "inputs": [],
            "name": "owner",
            "outputs": [
                {
                    "internalType": "address",
                    "name": "",
                    "type": "address"
                }
            ],
            "stateMutability": "view",
            "type": "function"
        },
        {
            "inputs": [],
            "name": "renounceOwnership",
            "outputs": [],
            "stateMutability": "nonpayable",
            "type": "function"
        },
        {
            "inputs": [
                {
                    "internalType": "address",
                    "name": "newOwner",
                    "type": "address"
                }
            ],
            "name": "transferOwnership",
            "outputs": [],
            "stateMutability": "nonpayable",
            "type": "function"
        },
        {
            "inputs": [
                {
                    "internalType": "bytes32",
                    "name": "id",
                    "type": "bytes32"
                },
                {
                    "internalType": "bytes32",
                    "name": "version",
                    "type": "bytes32"
                },
                {
                    "internalType": "string",
                    "name": "value",
                    "type": "string"
                }
            ],
            "name": "addVersion",
            "outputs": [],
            "stateMutability": "nonpayable",
            "type": "function"
        },
        {
            "inputs": [
                {
                    "internalType": "bytes32",
                    "name": "id",
                    "type": "bytes32"
                },
                {
                    "internalType": "bytes32",
                    "name": "version",
                    "type": "bytes32"
                },
                {
                    "internalType": "string",
                    "name": "reason",
                    "type": "string"
                }
            ],
            "name": "cancelVersion",
            "outputs": [],
            "stateMutability": "nonpayable",
            "type": "function"
        }
    ],
    "bytecode": "0x608060405234801561001057600080fd5b5060006100246001600160e01b0361007316565b600080546001600160a01b0319166001600160a01b0383169081178255604051929350917f8be0079c531659141344cd1fd0a4f28419497f9722a3daafe3b4186f6b6457e0908290a350610077565b3390565b6105ea806100866000396000f3fe608060405234801561001057600080fd5b50600436106100575760003560e01c8063089eae7e1461005c578063219ae672146100da578063715018a6146101565780638da5cb5b1461015e578063f2fde38b14610182575b600080fd5b6100d86004803603606081101561007257600080fd5b81359160208101359181019060608101604082013564010000000081111561009957600080fd5b8201836020820111156100ab57600080fd5b803590602001918460018302840111640100000000831117156100cd57600080fd5b5090925090506101a8565b005b6100d8600480360360608110156100f057600080fd5b81359160208101359181019060608101604082013564010000000081111561011757600080fd5b82018360208201111561012957600080fd5b8035906020019184600183028401116401000000008311171561014b57600080fd5b5090925090506102fa565b6100d86103c1565b610166610463565b604080516001600160a01b039092168252519081900360200190f35b6100d86004803603602081101561019857600080fd5b50356001600160a01b0316610472565b6101b061056a565b6000546001600160a01b03908116911614610200576040805162461bcd60e51b81526020600482018190526024820152600080516020610595833981519152604482015290519081900360640190fd5b8361023f576040805162461bcd60e51b815260206004820152600a6024820152691b5a5cdcda5b99c81a5960b21b604482015290519081900360640190fd5b82610283576040805162461bcd60e51b815260206004820152600f60248201526e36b4b9b9b4b733903b32b939b4b7b760891b604482015290519081900360640190fd5b837f56950023a84954108e1797b4f116b9339e395c7dfe94f9dd60b64806de93d3f88484844260405180858152602001806020018381526020018281038252858582818152602001925080828437600083820152604051601f909101601f191690920182900397509095505050505050a250505050565b61030261056a565b6000546001600160a01b03908116911614610352576040805162461bcd60e51b81526020600482018190526024820152600080516020610595833981519152604482015290519081900360640190fd5b837f488c2df78ad692792ecea5763ee0cb43065ea3110cf94e887b6f870129b70b5084848460405180848152602001806020018281038252848482818152602001925080828437600083820152604051601f909101601f1916909201829003965090945050505050a250505050565b6103c961056a565b6000546001600160a01b03908116911614610419576040805162461bcd60e51b81526020600482018190526024820152600080516020610595833981519152604482015290519081900360640190fd5b600080546040516001600160a01b03909116907f8be0079c531659141344cd1fd0a4f28419497f9722a3daafe3b4186f6b6457e0908390a3600080546001600160a01b0319169055565b6000546001600160a01b031690565b61047a61056a565b6000546001600160a01b039081169116146104ca576040805162461bcd60e51b81526020600482018190526024820152600080516020610595833981519152604482015290519081900360640190fd5b6001600160a01b03811661050f5760405162461bcd60e51b815260040180806020018281038252602681526020018061056f6026913960400191505060405180910390fd5b600080546040516001600160a01b03808516939216917f8be0079c531659141344cd1fd0a4f28419497f9722a3daafe3b4186f6b6457e091a3600080546001600160a01b0319166001600160a01b0392909216919091179055565b339056fe4f776e61626c653a206e6577206f776e657220697320746865207a65726f20616464726573734f776e61626c653a2063616c6c6572206973206e6f7420746865206f776e6572a26469706673582212204c2494eb3c95b00b895f5e24131e9f97b4bb9fefb739b2bbc8bdc0c92b1c290364736f6c634300060a0033",
    "immutableReferences": {},
    "source": "// SPDX-License-Identifier:MIT\npragma solidity ^0.6.2;\n// solhint-disable not-rely-on-time\n\nimport \"../interfaces/IVersionRegistry.sol\";\nimport \"@openzeppelin/contracts/access/Ownable.sol\";\n\ncontract VersionRegistry is IVersionRegistry, Ownable {\n\n    function addVersion(bytes32 id, bytes32 version, string calldata value) external override onlyOwner {\n        require(id != bytes32(0), \"missing id\");\n        require(version != bytes32(0), \"missing version\");\n        emit VersionAdded(id, version, value, block.timestamp);\n    }\n\n    function cancelVersion(bytes32 id, bytes32 version, string calldata reason) external override onlyOwner {\n        emit VersionCanceled(id, version, reason);\n    }\n}\n",
    "sourcePath": "/Users/dror/IdeaProjects/gsn/contracts/utils/VersionRegistry.sol",
    "compiler": {
        "name": "solc",
        "version": "0.6.10+commit.00c0fcaf.Emscripten.clang"
    },
    "schemaVersion": "3.1.0",
    "updatedAt": "2020-12-21T17:30:10.528Z",
    "devdoc": {
        "methods": {
            "owner()": {
                "details": "Returns the address of the current owner."
            },
            "renounceOwnership()": {
                "details": "Leaves the contract without owner. It will not be possible to call `onlyOwner` functions anymore. Can only be called by the current owner. NOTE: Renouncing ownership will leave the contract without an owner, thereby removing any functionality that is only available to the owner."
            },
            "transferOwnership(address)": {
                "details": "Transfers ownership of the contract to a new account (`newOwner`). Can only be called by the current owner."
            }
        }
    },
    "userdoc": {
        "methods": {}
    }
}